{
	"1.sol": {
		"UniswapV2AddLiquidity": {
			"abi": [
				{
					"inputs": [
						{
							"internalType": "address",
							"name": "_tokenA",
							"type": "address"
						},
						{
							"internalType": "address",
							"name": "_tokenB",
							"type": "address"
						},
						{
							"internalType": "uint256",
							"name": "_amountA",
							"type": "uint256"
						},
						{
							"internalType": "uint256",
							"name": "_amountB",
							"type": "uint256"
						}
					],
					"name": "addLiquidity",
					"outputs": [],
					"stateMutability": "nonpayable",
					"type": "function"
				},
				{
					"inputs": [
						{
							"internalType": "address",
							"name": "_tokenA",
							"type": "address"
						},
						{
							"internalType": "address",
							"name": "_tokenB",
							"type": "address"
						}
					],
					"name": "removeLiquidity",
					"outputs": [],
					"stateMutability": "nonpayable",
					"type": "function"
				}
			],
			"devdoc": {
				"kind": "dev",
				"methods": {},
				"version": 1
			},
			"evm": {
				"assembly": "    /* \"1.sol\":58:2941  contract UniswapV2AddLiquidity {... */\n  mstore(0x40, 0x80)\n  callvalue\n  dup1\n  iszero\n  tag_1\n  jumpi\n  0x00\n  dup1\n  revert\ntag_1:\n  pop\n  dataSize(sub_0)\n  dup1\n  dataOffset(sub_0)\n  0x00\n  codecopy\n  0x00\n  return\nstop\n\nsub_0: assembly {\n        /* \"1.sol\":58:2941  contract UniswapV2AddLiquidity {... */\n      mstore(0x40, 0x80)\n      callvalue\n      dup1\n      iszero\n      tag_1\n      jumpi\n      0x00\n      dup1\n      revert\n    tag_1:\n      pop\n      jumpi(tag_2, lt(calldatasize, 0x04))\n      shr(0xe0, calldataload(0x00))\n      dup1\n      0x9cf38f7c\n      eq\n      tag_3\n      jumpi\n      dup1\n      0xcf6c62ea\n      eq\n      tag_4\n      jumpi\n    tag_2:\n      0x00\n      dup1\n      revert\n        /* \"1.sol\":1070:1638  function removeLiquidity(address _tokenA, address _tokenB) external {... */\n    tag_3:\n      tag_5\n      0x04\n      dup1\n      calldatasize\n      sub\n      dup2\n      add\n      swap1\n      tag_6\n      swap2\n      swap1\n      tag_7\n      jump\t// in\n    tag_6:\n      tag_8\n      jump\t// in\n    tag_5:\n      stop\n        /* \"1.sol\":277:1064  function addLiquidity(... */\n    tag_4:\n      tag_9\n      0x04\n      dup1\n      calldatasize\n      sub\n      dup2\n      add\n      swap1\n      tag_10\n      swap2\n      swap1\n      tag_11\n      jump\t// in\n    tag_10:\n      tag_12\n      jump\t// in\n    tag_9:\n      stop\n        /* \"1.sol\":1070:1638  function removeLiquidity(address _tokenA, address _tokenB) external {... */\n    tag_8:\n        /* \"1.sol\":1148:1160  address pair */\n      0x00\n        /* \"1.sol\":138:180  0xEC12c2eFE5a1A8fC15d98C3d1d20Ce3e1097BB20 */\n      0xec12c2efe5a1a8fc15d98c3d1d20ce3e1097bb20\n        /* \"1.sol\":1163:1197  IUniswapV2Factory(FACTORY).getPair */\n      0xffffffffffffffffffffffffffffffffffffffff\n      and\n      0xe6a43905\n        /* \"1.sol\":1198:1205  _tokenA */\n      dup5\n        /* \"1.sol\":1207:1214  _tokenB */\n      dup5\n        /* \"1.sol\":1163:1215  IUniswapV2Factory(FACTORY).getPair(_tokenA, _tokenB) */\n      mload(0x40)\n      dup4\n      0xffffffff\n      and\n      0xe0\n      shl\n      dup2\n      mstore\n      0x04\n      add\n      tag_14\n      swap3\n      swap2\n      swap1\n      tag_15\n      jump\t// in\n    tag_14:\n      0x20\n      mload(0x40)\n      dup1\n      dup4\n      sub\n      dup2\n      dup7\n      gas\n      staticcall\n      iszero\n      dup1\n      iszero\n      tag_17\n      jumpi\n      returndatasize\n      0x00\n      dup1\n      returndatacopy\n      revert(0x00, returndatasize)\n    tag_17:\n      pop\n      pop\n      pop\n      pop\n      mload(0x40)\n      returndatasize\n      not(0x1f)\n      0x1f\n      dup3\n      add\n      and\n      dup3\n      add\n      dup1\n      0x40\n      mstore\n      pop\n      dup2\n      add\n      swap1\n      tag_18\n      swap2\n      swap1\n      tag_19\n      jump\t// in\n    tag_18:\n        /* \"1.sol\":1148:1215  address pair = IUniswapV2Factory(FACTORY).getPair(_tokenA, _tokenB) */\n      swap1\n      pop\n        /* \"1.sol\":1226:1243  uint256 liquidity */\n      0x00\n        /* \"1.sol\":1253:1257  pair */\n      dup2\n        /* \"1.sol\":1246:1268  IERC20(pair).balanceOf */\n      0xffffffffffffffffffffffffffffffffffffffff\n      and\n      0x70a08231\n        /* \"1.sol\":1277:1281  this */\n      address\n        /* \"1.sol\":1246:1283  IERC20(pair).balanceOf(address(this)) */\n      mload(0x40)\n      dup3\n      0xffffffff\n      and\n      0xe0\n      shl\n      dup2\n      mstore\n      0x04\n      add\n      tag_20\n      swap2\n      swap1\n      tag_21\n      jump\t// in\n    tag_20:\n      0x20\n      mload(0x40)\n      dup1\n      dup4\n      sub\n      dup2\n      dup7\n      gas\n      staticcall\n      iszero\n      dup1\n      iszero\n      tag_23\n      jumpi\n      returndatasize\n      0x00\n      dup1\n      returndatacopy\n      revert(0x00, returndatasize)\n    tag_23:\n      pop\n      pop\n      pop\n      pop\n      mload(0x40)\n      returndatasize\n      not(0x1f)\n      0x1f\n      dup3\n      add\n      and\n      dup3\n      add\n      dup1\n      0x40\n      mstore\n      pop\n      dup2\n      add\n      swap1\n      tag_24\n      swap2\n      swap1\n      tag_25\n      jump\t// in\n    tag_24:\n        /* \"1.sol\":1226:1283  uint256 liquidity = IERC20(pair).balanceOf(address(this)) */\n      swap1\n      pop\n        /* \"1.sol\":1293:1337  safeApprove(IERC20(pair), ROUTER, liquidity) */\n      tag_26\n        /* \"1.sol\":1312:1316  pair */\n      dup3\n        /* \"1.sol\":228:270  0x894d5D7Aba09BB36378F2D72094b270ddd915cAD */\n      0x894d5d7aba09bb36378f2d72094b270ddd915cad\n        /* \"1.sol\":1327:1336  liquidity */\n      dup4\n        /* \"1.sol\":1293:1304  safeApprove */\n      tag_27\n        /* \"1.sol\":1293:1337  safeApprove(IERC20(pair), ROUTER, liquidity) */\n      jump\t// in\n    tag_26:\n        /* \"1.sol\":1349:1364  uint256 amountA */\n      0x00\n        /* \"1.sol\":1366:1381  uint256 amountB */\n      dup1\n        /* \"1.sol\":228:270  0x894d5D7Aba09BB36378F2D72094b270ddd915cAD */\n      0x894d5d7aba09bb36378f2d72094b270ddd915cad\n        /* \"1.sol\":1385:1438  IUniswapV2Router(ROUTER)... */\n      0xffffffffffffffffffffffffffffffffffffffff\n      and\n      0xbaa2abde\n        /* \"1.sol\":1456:1463  _tokenA */\n      dup8\n        /* \"1.sol\":1481:1488  _tokenB */\n      dup8\n        /* \"1.sol\":1506:1515  liquidity */\n      dup7\n        /* \"1.sol\":1533:1534  1 */\n      0x01\n        /* \"1.sol\":1552:1553  1 */\n      dup1\n        /* \"1.sol\":1579:1583  this */\n      address\n        /* \"1.sol\":1602:1617  block.timestamp */\n      timestamp\n        /* \"1.sol\":1385:1631  IUniswapV2Router(ROUTER)... */\n      mload(0x40)\n      dup9\n      0xffffffff\n      and\n      0xe0\n      shl\n      dup2\n      mstore\n      0x04\n      add\n      tag_28\n      swap8\n      swap7\n      swap6\n      swap5\n      swap4\n      swap3\n      swap2\n      swap1\n      tag_29\n      jump\t// in\n    tag_28:\n      0x40\n      dup1\n      mload\n      dup1\n      dup4\n      sub\n      dup2\n      0x00\n      dup8\n      gas\n      call\n      iszero\n      dup1\n      iszero\n      tag_31\n      jumpi\n      returndatasize\n      0x00\n      dup1\n      returndatacopy\n      revert(0x00, returndatasize)\n    tag_31:\n      pop\n      pop\n      pop\n      pop\n      mload(0x40)\n      returndatasize\n      not(0x1f)\n      0x1f\n      dup3\n      add\n      and\n      dup3\n      add\n      dup1\n      0x40\n      mstore\n      pop\n      dup2\n      add\n      swap1\n      tag_32\n      swap2\n      swap1\n      tag_33\n      jump\t// in\n    tag_32:\n        /* \"1.sol\":1348:1631  (uint256 amountA, uint256 amountB) = IUniswapV2Router(ROUTER)... */\n      swap2\n      pop\n      swap2\n      pop\n        /* \"1.sol\":1138:1638  {... */\n      pop\n      pop\n      pop\n      pop\n        /* \"1.sol\":1070:1638  function removeLiquidity(address _tokenA, address _tokenB) external {... */\n      pop\n      pop\n      jump\t// out\n        /* \"1.sol\":277:1064  function addLiquidity(... */\n    tag_12:\n        /* \"1.sol\":426:496  safeTransferFrom(IERC20(_tokenA), msg.sender, address(this), _amountA) */\n      tag_35\n        /* \"1.sol\":450:457  _tokenA */\n      dup5\n        /* \"1.sol\":460:470  msg.sender */\n      caller\n        /* \"1.sol\":480:484  this */\n      address\n        /* \"1.sol\":487:495  _amountA */\n      dup6\n        /* \"1.sol\":426:442  safeTransferFrom */\n      tag_36\n        /* \"1.sol\":426:496  safeTransferFrom(IERC20(_tokenA), msg.sender, address(this), _amountA) */\n      jump\t// in\n    tag_35:\n        /* \"1.sol\":506:576  safeTransferFrom(IERC20(_tokenB), msg.sender, address(this), _amountB) */\n      tag_37\n        /* \"1.sol\":530:537  _tokenB */\n      dup4\n        /* \"1.sol\":540:550  msg.sender */\n      caller\n        /* \"1.sol\":560:564  this */\n      address\n        /* \"1.sol\":567:575  _amountB */\n      dup5\n        /* \"1.sol\":506:522  safeTransferFrom */\n      tag_36\n        /* \"1.sol\":506:576  safeTransferFrom(IERC20(_tokenB), msg.sender, address(this), _amountB) */\n      jump\t// in\n    tag_37:\n        /* \"1.sol\":587:633  safeApprove(IERC20(_tokenA), ROUTER, _amountA) */\n      tag_38\n        /* \"1.sol\":606:613  _tokenA */\n      dup5\n        /* \"1.sol\":228:270  0x894d5D7Aba09BB36378F2D72094b270ddd915cAD */\n      0x894d5d7aba09bb36378f2d72094b270ddd915cad\n        /* \"1.sol\":624:632  _amountA */\n      dup5\n        /* \"1.sol\":587:598  safeApprove */\n      tag_27\n        /* \"1.sol\":587:633  safeApprove(IERC20(_tokenA), ROUTER, _amountA) */\n      jump\t// in\n    tag_38:\n        /* \"1.sol\":643:689  safeApprove(IERC20(_tokenB), ROUTER, _amountB) */\n      tag_39\n        /* \"1.sol\":662:669  _tokenB */\n      dup4\n        /* \"1.sol\":228:270  0x894d5D7Aba09BB36378F2D72094b270ddd915cAD */\n      0x894d5d7aba09bb36378f2d72094b270ddd915cad\n        /* \"1.sol\":680:688  _amountB */\n      dup4\n        /* \"1.sol\":643:654  safeApprove */\n      tag_27\n        /* \"1.sol\":643:689  safeApprove(IERC20(_tokenB), ROUTER, _amountB) */\n      jump\t// in\n    tag_39:\n        /* \"1.sol\":714:729  uint256 amountA */\n      0x00\n        /* \"1.sol\":743:758  uint256 amountB */\n      dup1\n        /* \"1.sol\":772:789  uint256 liquidity */\n      0x00\n        /* \"1.sol\":228:270  0x894d5D7Aba09BB36378F2D72094b270ddd915cAD */\n      0x894d5d7aba09bb36378f2d72094b270ddd915cad\n        /* \"1.sol\":802:839  IUniswapV2Router(ROUTER).addLiquidity */\n      0xffffffffffffffffffffffffffffffffffffffff\n      and\n      0xe8e33700\n        /* \"1.sol\":857:864  _tokenA */\n      dup9\n        /* \"1.sol\":882:889  _tokenB */\n      dup9\n        /* \"1.sol\":907:915  _amountA */\n      dup9\n        /* \"1.sol\":933:941  _amountB */\n      dup9\n        /* \"1.sol\":959:960  1 */\n      0x01\n        /* \"1.sol\":978:979  1 */\n      dup1\n        /* \"1.sol\":1005:1009  this */\n      address\n        /* \"1.sol\":1028:1043  block.timestamp */\n      timestamp\n        /* \"1.sol\":802:1057  IUniswapV2Router(ROUTER).addLiquidity(... */\n      mload(0x40)\n      dup10\n      0xffffffff\n      and\n      0xe0\n      shl\n      dup2\n      mstore\n      0x04\n      add\n      tag_40\n      swap9\n      swap8\n      swap7\n      swap6\n      swap5\n      swap4\n      swap3\n      swap2\n      swap1\n      tag_41\n      jump\t// in\n    tag_40:\n      0x60\n      mload(0x40)\n      dup1\n      dup4\n      sub\n      dup2\n      0x00\n      dup8\n      gas\n      call\n      iszero\n      dup1\n      iszero\n      tag_43\n      jumpi\n      returndatasize\n      0x00\n      dup1\n      returndatacopy\n      revert(0x00, returndatasize)\n    tag_43:\n      pop\n      pop\n      pop\n      pop\n      mload(0x40)\n      returndatasize\n      not(0x1f)\n      0x1f\n      dup3\n      add\n      and\n      dup3\n      add\n      dup1\n      0x40\n      mstore\n      pop\n      dup2\n      add\n      swap1\n      tag_44\n      swap2\n      swap1\n      tag_45\n      jump\t// in\n    tag_44:\n        /* \"1.sol\":700:1057  (... */\n      swap3\n      pop\n      swap3\n      pop\n      swap3\n      pop\n        /* \"1.sol\":416:1064  {... */\n      pop\n      pop\n      pop\n        /* \"1.sol\":277:1064  function addLiquidity(... */\n      pop\n      pop\n      pop\n      pop\n      jump\t// out\n        /* \"1.sol\":2527:2939  function safeApprove(... */\n    tag_27:\n        /* \"1.sol\":2645:2657  bool success */\n      0x00\n        /* \"1.sol\":2659:2682  bytes memory returnData */\n      dup1\n        /* \"1.sol\":2694:2699  token */\n      dup5\n        /* \"1.sol\":2686:2705  address(token).call */\n      0xffffffffffffffffffffffffffffffffffffffff\n      and\n        /* \"1.sol\":2751:2758  spender */\n      dup5\n        /* \"1.sol\":2760:2766  amount */\n      dup5\n        /* \"1.sol\":2719:2768  abi.encodeCall(IERC20.approve, (spender, amount)) */\n      add(0x24, mload(0x40))\n      tag_47\n      swap3\n      swap2\n      swap1\n      tag_48\n      jump\t// in\n    tag_47:\n      mload(0x40)\n      0x20\n      dup2\n      dup4\n      sub\n      sub\n      dup2\n      mstore\n      swap1\n      0x40\n      mstore\n      shl(0xe0, 0x095ea7b3)\n      0x20\n      dup3\n      add\n      dup1\n      mload\n      0xffffffffffffffffffffffffffffffffffffffffffffffffffffffff\n      dup4\n      dup2\n      dup4\n      and\n      or\n      dup4\n      mstore\n      pop\n      pop\n      pop\n      pop\n        /* \"1.sol\":2686:2778  address(token).call(... */\n      mload(0x40)\n      tag_49\n      swap2\n      swap1\n      tag_50\n      jump\t// in\n    tag_49:\n      0x00\n      mload(0x40)\n      dup1\n      dup4\n      sub\n      dup2\n      0x00\n      dup7\n      gas\n      call\n      swap2\n      pop\n      pop\n      returndatasize\n      dup1\n      0x00\n      dup2\n      eq\n      tag_53\n      jumpi\n      mload(0x40)\n      swap2\n      pop\n      and(add(returndatasize, 0x3f), not(0x1f))\n      dup3\n      add\n      0x40\n      mstore\n      returndatasize\n      dup3\n      mstore\n      returndatasize\n      0x00\n      0x20\n      dup5\n      add\n      returndatacopy\n      jump(tag_52)\n    tag_53:\n      0x60\n      swap2\n      pop\n    tag_52:\n      pop\n        /* \"1.sol\":2644:2778  (bool success, bytes memory returnData) = address(token).call(... */\n      swap2\n      pop\n      swap2\n      pop\n        /* \"1.sol\":2809:2816  success */\n      dup2\n        /* \"1.sol\":2809:2894  success &&... */\n      dup1\n      iszero\n      tag_54\n      jumpi\n      pop\n        /* \"1.sol\":2858:2859  0 */\n      0x00\n        /* \"1.sol\":2837:2847  returnData */\n      dup2\n        /* \"1.sol\":2837:2854  returnData.length */\n      mload\n        /* \"1.sol\":2837:2859  returnData.length == 0 */\n      eq\n        /* \"1.sol\":2837:2893  returnData.length == 0 || abi.decode(returnData, (bool)) */\n      dup1\n      tag_55\n      jumpi\n      pop\n        /* \"1.sol\":2874:2884  returnData */\n      dup1\n        /* \"1.sol\":2863:2893  abi.decode(returnData, (bool)) */\n      dup1\n      0x20\n      add\n      swap1\n      mload\n      dup2\n      add\n      swap1\n      tag_56\n      swap2\n      swap1\n      tag_57\n      jump\t// in\n    tag_56:\n        /* \"1.sol\":2837:2893  returnData.length == 0 || abi.decode(returnData, (bool)) */\n    tag_55:\n        /* \"1.sol\":2809:2894  success &&... */\n    tag_54:\n        /* \"1.sol\":2788:2932  require(... */\n      tag_58\n      jumpi\n      mload(0x40)\n      0x08c379a000000000000000000000000000000000000000000000000000000000\n      dup2\n      mstore\n      0x04\n      add\n      tag_59\n      swap1\n      tag_60\n      jump\t// in\n    tag_59:\n      mload(0x40)\n      dup1\n      swap2\n      sub\n      swap1\n      revert\n    tag_58:\n        /* \"1.sol\":2634:2939  {... */\n      pop\n      pop\n        /* \"1.sol\":2527:2939  function safeApprove(... */\n      pop\n      pop\n      pop\n      jump\t// out\n        /* \"1.sol\":1853:2317  function safeTransferFrom(... */\n    tag_36:\n        /* \"1.sol\":2002:2014  bool success */\n      0x00\n        /* \"1.sol\":2016:2039  bytes memory returnData */\n      dup1\n        /* \"1.sol\":2051:2056  token */\n      dup6\n        /* \"1.sol\":2043:2062  address(token).call */\n      0xffffffffffffffffffffffffffffffffffffffff\n      and\n        /* \"1.sol\":2113:2119  sender */\n      dup6\n        /* \"1.sol\":2121:2130  recipient */\n      dup6\n        /* \"1.sol\":2132:2138  amount */\n      dup6\n        /* \"1.sol\":2076:2140  abi.encodeCall(IERC20.transferFrom, (sender, recipient, amount)) */\n      add(0x24, mload(0x40))\n      tag_62\n      swap4\n      swap3\n      swap2\n      swap1\n      tag_63\n      jump\t// in\n    tag_62:\n      mload(0x40)\n      0x20\n      dup2\n      dup4\n      sub\n      sub\n      dup2\n      mstore\n      swap1\n      0x40\n      mstore\n      shl(0xe0, 0x23b872dd)\n      0x20\n      dup3\n      add\n      dup1\n      mload\n      0xffffffffffffffffffffffffffffffffffffffffffffffffffffffff\n      dup4\n      dup2\n      dup4\n      and\n      or\n      dup4\n      mstore\n      pop\n      pop\n      pop\n      pop\n        /* \"1.sol\":2043:2150  address(token).call(... */\n      mload(0x40)\n      tag_64\n      swap2\n      swap1\n      tag_50\n      jump\t// in\n    tag_64:\n      0x00\n      mload(0x40)\n      dup1\n      dup4\n      sub\n      dup2\n      0x00\n      dup7\n      gas\n      call\n      swap2\n      pop\n      pop\n      returndatasize\n      dup1\n      0x00\n      dup2\n      eq\n      tag_67\n      jumpi\n      mload(0x40)\n      swap2\n      pop\n      and(add(returndatasize, 0x3f), not(0x1f))\n      dup3\n      add\n      0x40\n      mstore\n      returndatasize\n      dup3\n      mstore\n      returndatasize\n      0x00\n      0x20\n      dup5\n      add\n      returndatacopy\n      jump(tag_66)\n    tag_67:\n      0x60\n      swap2\n      pop\n    tag_66:\n      pop\n        /* \"1.sol\":2001:2150  (bool success, bytes memory returnData) = address(token).call(... */\n      swap2\n      pop\n      swap2\n      pop\n        /* \"1.sol\":2181:2188  success */\n      dup2\n        /* \"1.sol\":2181:2266  success &&... */\n      dup1\n      iszero\n      tag_68\n      jumpi\n      pop\n        /* \"1.sol\":2230:2231  0 */\n      0x00\n        /* \"1.sol\":2209:2219  returnData */\n      dup2\n        /* \"1.sol\":2209:2226  returnData.length */\n      mload\n        /* \"1.sol\":2209:2231  returnData.length == 0 */\n      eq\n        /* \"1.sol\":2209:2265  returnData.length == 0 || abi.decode(returnData, (bool)) */\n      dup1\n      tag_69\n      jumpi\n      pop\n        /* \"1.sol\":2246:2256  returnData */\n      dup1\n        /* \"1.sol\":2235:2265  abi.decode(returnData, (bool)) */\n      dup1\n      0x20\n      add\n      swap1\n      mload\n      dup2\n      add\n      swap1\n      tag_70\n      swap2\n      swap1\n      tag_57\n      jump\t// in\n    tag_70:\n        /* \"1.sol\":2209:2265  returnData.length == 0 || abi.decode(returnData, (bool)) */\n    tag_69:\n        /* \"1.sol\":2181:2266  success &&... */\n    tag_68:\n        /* \"1.sol\":2160:2310  require(... */\n      tag_71\n      jumpi\n      mload(0x40)\n      0x08c379a000000000000000000000000000000000000000000000000000000000\n      dup2\n      mstore\n      0x04\n      add\n      tag_72\n      swap1\n      tag_73\n      jump\t// in\n    tag_72:\n      mload(0x40)\n      dup1\n      swap2\n      sub\n      swap1\n      revert\n    tag_71:\n        /* \"1.sol\":1991:2317  {... */\n      pop\n      pop\n        /* \"1.sol\":1853:2317  function safeTransferFrom(... */\n      pop\n      pop\n      pop\n      pop\n      jump\t// out\n        /* \"#utility.yul\":88:205   */\n    tag_75:\n        /* \"#utility.yul\":197:198   */\n      0x00\n        /* \"#utility.yul\":194:195   */\n      dup1\n        /* \"#utility.yul\":187:199   */\n      revert\n        /* \"#utility.yul\":334:460   */\n    tag_77:\n        /* \"#utility.yul\":371:378   */\n      0x00\n        /* \"#utility.yul\":411:453   */\n      0xffffffffffffffffffffffffffffffffffffffff\n        /* \"#utility.yul\":404:409   */\n      dup3\n        /* \"#utility.yul\":400:454   */\n      and\n        /* \"#utility.yul\":389:454   */\n      swap1\n      pop\n        /* \"#utility.yul\":334:460   */\n      swap2\n      swap1\n      pop\n      jump\t// out\n        /* \"#utility.yul\":466:562   */\n    tag_78:\n        /* \"#utility.yul\":503:510   */\n      0x00\n        /* \"#utility.yul\":532:556   */\n      tag_110\n        /* \"#utility.yul\":550:555   */\n      dup3\n        /* \"#utility.yul\":532:556   */\n      tag_77\n      jump\t// in\n    tag_110:\n        /* \"#utility.yul\":521:556   */\n      swap1\n      pop\n        /* \"#utility.yul\":466:562   */\n      swap2\n      swap1\n      pop\n      jump\t// out\n        /* \"#utility.yul\":568:690   */\n    tag_79:\n        /* \"#utility.yul\":641:665   */\n      tag_112\n        /* \"#utility.yul\":659:664   */\n      dup2\n        /* \"#utility.yul\":641:665   */\n      tag_78\n      jump\t// in\n    tag_112:\n        /* \"#utility.yul\":634:639   */\n      dup2\n        /* \"#utility.yul\":631:666   */\n      eq\n        /* \"#utility.yul\":621:684   */\n      tag_113\n      jumpi\n        /* \"#utility.yul\":680:681   */\n      0x00\n        /* \"#utility.yul\":677:678   */\n      dup1\n        /* \"#utility.yul\":670:682   */\n      revert\n        /* \"#utility.yul\":621:684   */\n    tag_113:\n        /* \"#utility.yul\":568:690   */\n      pop\n      jump\t// out\n        /* \"#utility.yul\":696:835   */\n    tag_80:\n        /* \"#utility.yul\":742:747   */\n      0x00\n        /* \"#utility.yul\":780:786   */\n      dup2\n        /* \"#utility.yul\":767:787   */\n      calldataload\n        /* \"#utility.yul\":758:787   */\n      swap1\n      pop\n        /* \"#utility.yul\":796:829   */\n      tag_115\n        /* \"#utility.yul\":823:828   */\n      dup2\n        /* \"#utility.yul\":796:829   */\n      tag_79\n      jump\t// in\n    tag_115:\n        /* \"#utility.yul\":696:835   */\n      swap3\n      swap2\n      pop\n      pop\n      jump\t// out\n        /* \"#utility.yul\":841:1315   */\n    tag_7:\n        /* \"#utility.yul\":909:915   */\n      0x00\n        /* \"#utility.yul\":917:923   */\n      dup1\n        /* \"#utility.yul\":966:968   */\n      0x40\n        /* \"#utility.yul\":954:963   */\n      dup4\n        /* \"#utility.yul\":945:952   */\n      dup6\n        /* \"#utility.yul\":941:964   */\n      sub\n        /* \"#utility.yul\":937:969   */\n      slt\n        /* \"#utility.yul\":934:1053   */\n      iszero\n      tag_117\n      jumpi\n        /* \"#utility.yul\":972:1051   */\n      tag_118\n      tag_75\n      jump\t// in\n    tag_118:\n        /* \"#utility.yul\":934:1053   */\n    tag_117:\n        /* \"#utility.yul\":1092:1093   */\n      0x00\n        /* \"#utility.yul\":1117:1170   */\n      tag_119\n        /* \"#utility.yul\":1162:1169   */\n      dup6\n        /* \"#utility.yul\":1153:1159   */\n      dup3\n        /* \"#utility.yul\":1142:1151   */\n      dup7\n        /* \"#utility.yul\":1138:1160   */\n      add\n        /* \"#utility.yul\":1117:1170   */\n      tag_80\n      jump\t// in\n    tag_119:\n        /* \"#utility.yul\":1107:1170   */\n      swap3\n      pop\n        /* \"#utility.yul\":1063:1180   */\n      pop\n        /* \"#utility.yul\":1219:1221   */\n      0x20\n        /* \"#utility.yul\":1245:1298   */\n      tag_120\n        /* \"#utility.yul\":1290:1297   */\n      dup6\n        /* \"#utility.yul\":1281:1287   */\n      dup3\n        /* \"#utility.yul\":1270:1279   */\n      dup7\n        /* \"#utility.yul\":1266:1288   */\n      add\n        /* \"#utility.yul\":1245:1298   */\n      tag_80\n      jump\t// in\n    tag_120:\n        /* \"#utility.yul\":1235:1298   */\n      swap2\n      pop\n        /* \"#utility.yul\":1190:1308   */\n      pop\n        /* \"#utility.yul\":841:1315   */\n      swap3\n      pop\n      swap3\n      swap1\n      pop\n      jump\t// out\n        /* \"#utility.yul\":1321:1398   */\n    tag_81:\n        /* \"#utility.yul\":1358:1365   */\n      0x00\n        /* \"#utility.yul\":1387:1392   */\n      dup2\n        /* \"#utility.yul\":1376:1392   */\n      swap1\n      pop\n        /* \"#utility.yul\":1321:1398   */\n      swap2\n      swap1\n      pop\n      jump\t// out\n        /* \"#utility.yul\":1404:1526   */\n    tag_82:\n        /* \"#utility.yul\":1477:1501   */\n      tag_123\n        /* \"#utility.yul\":1495:1500   */\n      dup2\n        /* \"#utility.yul\":1477:1501   */\n      tag_81\n      jump\t// in\n    tag_123:\n        /* \"#utility.yul\":1470:1475   */\n      dup2\n        /* \"#utility.yul\":1467:1502   */\n      eq\n        /* \"#utility.yul\":1457:1520   */\n      tag_124\n      jumpi\n        /* \"#utility.yul\":1516:1517   */\n      0x00\n        /* \"#utility.yul\":1513:1514   */\n      dup1\n        /* \"#utility.yul\":1506:1518   */\n      revert\n        /* \"#utility.yul\":1457:1520   */\n    tag_124:\n        /* \"#utility.yul\":1404:1526   */\n      pop\n      jump\t// out\n        /* \"#utility.yul\":1532:1671   */\n    tag_83:\n        /* \"#utility.yul\":1578:1583   */\n      0x00\n        /* \"#utility.yul\":1616:1622   */\n      dup2\n        /* \"#utility.yul\":1603:1623   */\n      calldataload\n        /* \"#utility.yul\":1594:1623   */\n      swap1\n      pop\n        /* \"#utility.yul\":1632:1665   */\n      tag_126\n        /* \"#utility.yul\":1659:1664   */\n      dup2\n        /* \"#utility.yul\":1632:1665   */\n      tag_82\n      jump\t// in\n    tag_126:\n        /* \"#utility.yul\":1532:1671   */\n      swap3\n      swap2\n      pop\n      pop\n      jump\t// out\n        /* \"#utility.yul\":1677:2442   */\n    tag_11:\n        /* \"#utility.yul\":1763:1769   */\n      0x00\n        /* \"#utility.yul\":1771:1777   */\n      dup1\n        /* \"#utility.yul\":1779:1785   */\n      0x00\n        /* \"#utility.yul\":1787:1793   */\n      dup1\n        /* \"#utility.yul\":1836:1839   */\n      0x80\n        /* \"#utility.yul\":1824:1833   */\n      dup6\n        /* \"#utility.yul\":1815:1822   */\n      dup8\n        /* \"#utility.yul\":1811:1834   */\n      sub\n        /* \"#utility.yul\":1807:1840   */\n      slt\n        /* \"#utility.yul\":1804:1924   */\n      iszero\n      tag_128\n      jumpi\n        /* \"#utility.yul\":1843:1922   */\n      tag_129\n      tag_75\n      jump\t// in\n    tag_129:\n        /* \"#utility.yul\":1804:1924   */\n    tag_128:\n        /* \"#utility.yul\":1963:1964   */\n      0x00\n        /* \"#utility.yul\":1988:2041   */\n      tag_130\n        /* \"#utility.yul\":2033:2040   */\n      dup8\n        /* \"#utility.yul\":2024:2030   */\n      dup3\n        /* \"#utility.yul\":2013:2022   */\n      dup9\n        /* \"#utility.yul\":2009:2031   */\n      add\n        /* \"#utility.yul\":1988:2041   */\n      tag_80\n      jump\t// in\n    tag_130:\n        /* \"#utility.yul\":1978:2041   */\n      swap5\n      pop\n        /* \"#utility.yul\":1934:2051   */\n      pop\n        /* \"#utility.yul\":2090:2092   */\n      0x20\n        /* \"#utility.yul\":2116:2169   */\n      tag_131\n        /* \"#utility.yul\":2161:2168   */\n      dup8\n        /* \"#utility.yul\":2152:2158   */\n      dup3\n        /* \"#utility.yul\":2141:2150   */\n      dup9\n        /* \"#utility.yul\":2137:2159   */\n      add\n        /* \"#utility.yul\":2116:2169   */\n      tag_80\n      jump\t// in\n    tag_131:\n        /* \"#utility.yul\":2106:2169   */\n      swap4\n      pop\n        /* \"#utility.yul\":2061:2179   */\n      pop\n        /* \"#utility.yul\":2218:2220   */\n      0x40\n        /* \"#utility.yul\":2244:2297   */\n      tag_132\n        /* \"#utility.yul\":2289:2296   */\n      dup8\n        /* \"#utility.yul\":2280:2286   */\n      dup3\n        /* \"#utility.yul\":2269:2278   */\n      dup9\n        /* \"#utility.yul\":2265:2287   */\n      add\n        /* \"#utility.yul\":2244:2297   */\n      tag_83\n      jump\t// in\n    tag_132:\n        /* \"#utility.yul\":2234:2297   */\n      swap3\n      pop\n        /* \"#utility.yul\":2189:2307   */\n      pop\n        /* \"#utility.yul\":2346:2348   */\n      0x60\n        /* \"#utility.yul\":2372:2425   */\n      tag_133\n        /* \"#utility.yul\":2417:2424   */\n      dup8\n        /* \"#utility.yul\":2408:2414   */\n      dup3\n        /* \"#utility.yul\":2397:2406   */\n      dup9\n        /* \"#utility.yul\":2393:2415   */\n      add\n        /* \"#utility.yul\":2372:2425   */\n      tag_83\n      jump\t// in\n    tag_133:\n        /* \"#utility.yul\":2362:2425   */\n      swap2\n      pop\n        /* \"#utility.yul\":2317:2435   */\n      pop\n        /* \"#utility.yul\":1677:2442   */\n      swap3\n      swap6\n      swap2\n      swap5\n      pop\n      swap3\n      pop\n      jump\t// out\n        /* \"#utility.yul\":2448:2566   */\n    tag_84:\n        /* \"#utility.yul\":2535:2559   */\n      tag_135\n        /* \"#utility.yul\":2553:2558   */\n      dup2\n        /* \"#utility.yul\":2535:2559   */\n      tag_78\n      jump\t// in\n    tag_135:\n        /* \"#utility.yul\":2530:2533   */\n      dup3\n        /* \"#utility.yul\":2523:2560   */\n      mstore\n        /* \"#utility.yul\":2448:2566   */\n      pop\n      pop\n      jump\t// out\n        /* \"#utility.yul\":2572:2904   */\n    tag_15:\n        /* \"#utility.yul\":2693:2697   */\n      0x00\n        /* \"#utility.yul\":2731:2733   */\n      0x40\n        /* \"#utility.yul\":2720:2729   */\n      dup3\n        /* \"#utility.yul\":2716:2734   */\n      add\n        /* \"#utility.yul\":2708:2734   */\n      swap1\n      pop\n        /* \"#utility.yul\":2744:2815   */\n      tag_137\n        /* \"#utility.yul\":2812:2813   */\n      0x00\n        /* \"#utility.yul\":2801:2810   */\n      dup4\n        /* \"#utility.yul\":2797:2814   */\n      add\n        /* \"#utility.yul\":2788:2794   */\n      dup6\n        /* \"#utility.yul\":2744:2815   */\n      tag_84\n      jump\t// in\n    tag_137:\n        /* \"#utility.yul\":2825:2897   */\n      tag_138\n        /* \"#utility.yul\":2893:2895   */\n      0x20\n        /* \"#utility.yul\":2882:2891   */\n      dup4\n        /* \"#utility.yul\":2878:2896   */\n      add\n        /* \"#utility.yul\":2869:2875   */\n      dup5\n        /* \"#utility.yul\":2825:2897   */\n      tag_84\n      jump\t// in\n    tag_138:\n        /* \"#utility.yul\":2572:2904   */\n      swap4\n      swap3\n      pop\n      pop\n      pop\n      jump\t// out\n        /* \"#utility.yul\":2910:3053   */\n    tag_85:\n        /* \"#utility.yul\":2967:2972   */\n      0x00\n        /* \"#utility.yul\":2998:3004   */\n      dup2\n        /* \"#utility.yul\":2992:3005   */\n      mload\n        /* \"#utility.yul\":2983:3005   */\n      swap1\n      pop\n        /* \"#utility.yul\":3014:3047   */\n      tag_140\n        /* \"#utility.yul\":3041:3046   */\n      dup2\n        /* \"#utility.yul\":3014:3047   */\n      tag_79\n      jump\t// in\n    tag_140:\n        /* \"#utility.yul\":2910:3053   */\n      swap3\n      swap2\n      pop\n      pop\n      jump\t// out\n        /* \"#utility.yul\":3059:3410   */\n    tag_19:\n        /* \"#utility.yul\":3129:3135   */\n      0x00\n        /* \"#utility.yul\":3178:3180   */\n      0x20\n        /* \"#utility.yul\":3166:3175   */\n      dup3\n        /* \"#utility.yul\":3157:3164   */\n      dup5\n        /* \"#utility.yul\":3153:3176   */\n      sub\n        /* \"#utility.yul\":3149:3181   */\n      slt\n        /* \"#utility.yul\":3146:3265   */\n      iszero\n      tag_142\n      jumpi\n        /* \"#utility.yul\":3184:3263   */\n      tag_143\n      tag_75\n      jump\t// in\n    tag_143:\n        /* \"#utility.yul\":3146:3265   */\n    tag_142:\n        /* \"#utility.yul\":3304:3305   */\n      0x00\n        /* \"#utility.yul\":3329:3393   */\n      tag_144\n        /* \"#utility.yul\":3385:3392   */\n      dup5\n        /* \"#utility.yul\":3376:3382   */\n      dup3\n        /* \"#utility.yul\":3365:3374   */\n      dup6\n        /* \"#utility.yul\":3361:3383   */\n      add\n        /* \"#utility.yul\":3329:3393   */\n      tag_85\n      jump\t// in\n    tag_144:\n        /* \"#utility.yul\":3319:3393   */\n      swap2\n      pop\n        /* \"#utility.yul\":3275:3403   */\n      pop\n        /* \"#utility.yul\":3059:3410   */\n      swap3\n      swap2\n      pop\n      pop\n      jump\t// out\n        /* \"#utility.yul\":3416:3638   */\n    tag_21:\n        /* \"#utility.yul\":3509:3513   */\n      0x00\n        /* \"#utility.yul\":3547:3549   */\n      0x20\n        /* \"#utility.yul\":3536:3545   */\n      dup3\n        /* \"#utility.yul\":3532:3550   */\n      add\n        /* \"#utility.yul\":3524:3550   */\n      swap1\n      pop\n        /* \"#utility.yul\":3560:3631   */\n      tag_146\n        /* \"#utility.yul\":3628:3629   */\n      0x00\n        /* \"#utility.yul\":3617:3626   */\n      dup4\n        /* \"#utility.yul\":3613:3630   */\n      add\n        /* \"#utility.yul\":3604:3610   */\n      dup5\n        /* \"#utility.yul\":3560:3631   */\n      tag_84\n      jump\t// in\n    tag_146:\n        /* \"#utility.yul\":3416:3638   */\n      swap3\n      swap2\n      pop\n      pop\n      jump\t// out\n        /* \"#utility.yul\":3644:3787   */\n    tag_86:\n        /* \"#utility.yul\":3701:3706   */\n      0x00\n        /* \"#utility.yul\":3732:3738   */\n      dup2\n        /* \"#utility.yul\":3726:3739   */\n      mload\n        /* \"#utility.yul\":3717:3739   */\n      swap1\n      pop\n        /* \"#utility.yul\":3748:3781   */\n      tag_148\n        /* \"#utility.yul\":3775:3780   */\n      dup2\n        /* \"#utility.yul\":3748:3781   */\n      tag_82\n      jump\t// in\n    tag_148:\n        /* \"#utility.yul\":3644:3787   */\n      swap3\n      swap2\n      pop\n      pop\n      jump\t// out\n        /* \"#utility.yul\":3793:4144   */\n    tag_25:\n        /* \"#utility.yul\":3863:3869   */\n      0x00\n        /* \"#utility.yul\":3912:3914   */\n      0x20\n        /* \"#utility.yul\":3900:3909   */\n      dup3\n        /* \"#utility.yul\":3891:3898   */\n      dup5\n        /* \"#utility.yul\":3887:3910   */\n      sub\n        /* \"#utility.yul\":3883:3915   */\n      slt\n        /* \"#utility.yul\":3880:3999   */\n      iszero\n      tag_150\n      jumpi\n        /* \"#utility.yul\":3918:3997   */\n      tag_151\n      tag_75\n      jump\t// in\n    tag_151:\n        /* \"#utility.yul\":3880:3999   */\n    tag_150:\n        /* \"#utility.yul\":4038:4039   */\n      0x00\n        /* \"#utility.yul\":4063:4127   */\n      tag_152\n        /* \"#utility.yul\":4119:4126   */\n      dup5\n        /* \"#utility.yul\":4110:4116   */\n      dup3\n        /* \"#utility.yul\":4099:4108   */\n      dup6\n        /* \"#utility.yul\":4095:4117   */\n      add\n        /* \"#utility.yul\":4063:4127   */\n      tag_86\n      jump\t// in\n    tag_152:\n        /* \"#utility.yul\":4053:4127   */\n      swap2\n      pop\n        /* \"#utility.yul\":4009:4137   */\n      pop\n        /* \"#utility.yul\":3793:4144   */\n      swap3\n      swap2\n      pop\n      pop\n      jump\t// out\n        /* \"#utility.yul\":4150:4268   */\n    tag_87:\n        /* \"#utility.yul\":4237:4261   */\n      tag_154\n        /* \"#utility.yul\":4255:4260   */\n      dup2\n        /* \"#utility.yul\":4237:4261   */\n      tag_81\n      jump\t// in\n    tag_154:\n        /* \"#utility.yul\":4232:4235   */\n      dup3\n        /* \"#utility.yul\":4225:4262   */\n      mstore\n        /* \"#utility.yul\":4150:4268   */\n      pop\n      pop\n      jump\t// out\n        /* \"#utility.yul\":4274:4359   */\n    tag_88:\n        /* \"#utility.yul\":4319:4326   */\n      0x00\n        /* \"#utility.yul\":4348:4353   */\n      dup2\n        /* \"#utility.yul\":4337:4353   */\n      swap1\n      pop\n        /* \"#utility.yul\":4274:4359   */\n      swap2\n      swap1\n      pop\n      jump\t// out\n        /* \"#utility.yul\":4365:4425   */\n    tag_89:\n        /* \"#utility.yul\":4393:4396   */\n      0x00\n        /* \"#utility.yul\":4414:4419   */\n      dup2\n        /* \"#utility.yul\":4407:4419   */\n      swap1\n      pop\n        /* \"#utility.yul\":4365:4425   */\n      swap2\n      swap1\n      pop\n      jump\t// out\n        /* \"#utility.yul\":4431:4589   */\n    tag_90:\n        /* \"#utility.yul\":4489:4498   */\n      0x00\n        /* \"#utility.yul\":4522:4583   */\n      tag_158\n        /* \"#utility.yul\":4540:4582   */\n      tag_159\n        /* \"#utility.yul\":4549:4581   */\n      tag_160\n        /* \"#utility.yul\":4575:4580   */\n      dup5\n        /* \"#utility.yul\":4549:4581   */\n      tag_88\n      jump\t// in\n    tag_160:\n        /* \"#utility.yul\":4540:4582   */\n      tag_89\n      jump\t// in\n    tag_159:\n        /* \"#utility.yul\":4522:4583   */\n      tag_81\n      jump\t// in\n    tag_158:\n        /* \"#utility.yul\":4509:4583   */\n      swap1\n      pop\n        /* \"#utility.yul\":4431:4589   */\n      swap2\n      swap1\n      pop\n      jump\t// out\n        /* \"#utility.yul\":4595:4742   */\n    tag_91:\n        /* \"#utility.yul\":4690:4735   */\n      tag_162\n        /* \"#utility.yul\":4729:4734   */\n      dup2\n        /* \"#utility.yul\":4690:4735   */\n      tag_90\n      jump\t// in\n    tag_162:\n        /* \"#utility.yul\":4685:4688   */\n      dup3\n        /* \"#utility.yul\":4678:4736   */\n      mstore\n        /* \"#utility.yul\":4595:4742   */\n      pop\n      pop\n      jump\t// out\n        /* \"#utility.yul\":4748:5666   */\n    tag_29:\n        /* \"#utility.yul\":5025:5029   */\n      0x00\n        /* \"#utility.yul\":5063:5066   */\n      0xe0\n        /* \"#utility.yul\":5052:5061   */\n      dup3\n        /* \"#utility.yul\":5048:5067   */\n      add\n        /* \"#utility.yul\":5040:5067   */\n      swap1\n      pop\n        /* \"#utility.yul\":5077:5148   */\n      tag_164\n        /* \"#utility.yul\":5145:5146   */\n      0x00\n        /* \"#utility.yul\":5134:5143   */\n      dup4\n        /* \"#utility.yul\":5130:5147   */\n      add\n        /* \"#utility.yul\":5121:5127   */\n      dup11\n        /* \"#utility.yul\":5077:5148   */\n      tag_84\n      jump\t// in\n    tag_164:\n        /* \"#utility.yul\":5158:5230   */\n      tag_165\n        /* \"#utility.yul\":5226:5228   */\n      0x20\n        /* \"#utility.yul\":5215:5224   */\n      dup4\n        /* \"#utility.yul\":5211:5229   */\n      add\n        /* \"#utility.yul\":5202:5208   */\n      dup10\n        /* \"#utility.yul\":5158:5230   */\n      tag_84\n      jump\t// in\n    tag_165:\n        /* \"#utility.yul\":5240:5312   */\n      tag_166\n        /* \"#utility.yul\":5308:5310   */\n      0x40\n        /* \"#utility.yul\":5297:5306   */\n      dup4\n        /* \"#utility.yul\":5293:5311   */\n      add\n        /* \"#utility.yul\":5284:5290   */\n      dup9\n        /* \"#utility.yul\":5240:5312   */\n      tag_87\n      jump\t// in\n    tag_166:\n        /* \"#utility.yul\":5322:5402   */\n      tag_167\n        /* \"#utility.yul\":5398:5400   */\n      0x60\n        /* \"#utility.yul\":5387:5396   */\n      dup4\n        /* \"#utility.yul\":5383:5401   */\n      add\n        /* \"#utility.yul\":5374:5380   */\n      dup8\n        /* \"#utility.yul\":5322:5402   */\n      tag_91\n      jump\t// in\n    tag_167:\n        /* \"#utility.yul\":5412:5493   */\n      tag_168\n        /* \"#utility.yul\":5488:5491   */\n      0x80\n        /* \"#utility.yul\":5477:5486   */\n      dup4\n        /* \"#utility.yul\":5473:5492   */\n      add\n        /* \"#utility.yul\":5464:5470   */\n      dup7\n        /* \"#utility.yul\":5412:5493   */\n      tag_91\n      jump\t// in\n    tag_168:\n        /* \"#utility.yul\":5503:5576   */\n      tag_169\n        /* \"#utility.yul\":5571:5574   */\n      0xa0\n        /* \"#utility.yul\":5560:5569   */\n      dup4\n        /* \"#utility.yul\":5556:5575   */\n      add\n        /* \"#utility.yul\":5547:5553   */\n      dup6\n        /* \"#utility.yul\":5503:5576   */\n      tag_84\n      jump\t// in\n    tag_169:\n        /* \"#utility.yul\":5586:5659   */\n      tag_170\n        /* \"#utility.yul\":5654:5657   */\n      0xc0\n        /* \"#utility.yul\":5643:5652   */\n      dup4\n        /* \"#utility.yul\":5639:5658   */\n      add\n        /* \"#utility.yul\":5630:5636   */\n      dup5\n        /* \"#utility.yul\":5586:5659   */\n      tag_87\n      jump\t// in\n    tag_170:\n        /* \"#utility.yul\":4748:5666   */\n      swap9\n      swap8\n      pop\n      pop\n      pop\n      pop\n      pop\n      pop\n      pop\n      pop\n      jump\t// out\n        /* \"#utility.yul\":5672:6179   */\n    tag_33:\n        /* \"#utility.yul\":5751:5757   */\n      0x00\n        /* \"#utility.yul\":5759:5765   */\n      dup1\n        /* \"#utility.yul\":5808:5810   */\n      0x40\n        /* \"#utility.yul\":5796:5805   */\n      dup4\n        /* \"#utility.yul\":5787:5794   */\n      dup6\n        /* \"#utility.yul\":5783:5806   */\n      sub\n        /* \"#utility.yul\":5779:5811   */\n      slt\n        /* \"#utility.yul\":5776:5895   */\n      iszero\n      tag_172\n      jumpi\n        /* \"#utility.yul\":5814:5893   */\n      tag_173\n      tag_75\n      jump\t// in\n    tag_173:\n        /* \"#utility.yul\":5776:5895   */\n    tag_172:\n        /* \"#utility.yul\":5934:5935   */\n      0x00\n        /* \"#utility.yul\":5959:6023   */\n      tag_174\n        /* \"#utility.yul\":6015:6022   */\n      dup6\n        /* \"#utility.yul\":6006:6012   */\n      dup3\n        /* \"#utility.yul\":5995:6004   */\n      dup7\n        /* \"#utility.yul\":5991:6013   */\n      add\n        /* \"#utility.yul\":5959:6023   */\n      tag_86\n      jump\t// in\n    tag_174:\n        /* \"#utility.yul\":5949:6023   */\n      swap3\n      pop\n        /* \"#utility.yul\":5905:6033   */\n      pop\n        /* \"#utility.yul\":6072:6074   */\n      0x20\n        /* \"#utility.yul\":6098:6162   */\n      tag_175\n        /* \"#utility.yul\":6154:6161   */\n      dup6\n        /* \"#utility.yul\":6145:6151   */\n      dup3\n        /* \"#utility.yul\":6134:6143   */\n      dup7\n        /* \"#utility.yul\":6130:6152   */\n      add\n        /* \"#utility.yul\":6098:6162   */\n      tag_86\n      jump\t// in\n    tag_175:\n        /* \"#utility.yul\":6088:6162   */\n      swap2\n      pop\n        /* \"#utility.yul\":6043:6172   */\n      pop\n        /* \"#utility.yul\":5672:6179   */\n      swap3\n      pop\n      swap3\n      swap1\n      pop\n      jump\t// out\n        /* \"#utility.yul\":6185:7214   */\n    tag_41:\n        /* \"#utility.yul\":6490:6494   */\n      0x00\n        /* \"#utility.yul\":6528:6531   */\n      0x0100\n        /* \"#utility.yul\":6517:6526   */\n      dup3\n        /* \"#utility.yul\":6513:6532   */\n      add\n        /* \"#utility.yul\":6505:6532   */\n      swap1\n      pop\n        /* \"#utility.yul\":6542:6613   */\n      tag_177\n        /* \"#utility.yul\":6610:6611   */\n      0x00\n        /* \"#utility.yul\":6599:6608   */\n      dup4\n        /* \"#utility.yul\":6595:6612   */\n      add\n        /* \"#utility.yul\":6586:6592   */\n      dup12\n        /* \"#utility.yul\":6542:6613   */\n      tag_84\n      jump\t// in\n    tag_177:\n        /* \"#utility.yul\":6623:6695   */\n      tag_178\n        /* \"#utility.yul\":6691:6693   */\n      0x20\n        /* \"#utility.yul\":6680:6689   */\n      dup4\n        /* \"#utility.yul\":6676:6694   */\n      add\n        /* \"#utility.yul\":6667:6673   */\n      dup11\n        /* \"#utility.yul\":6623:6695   */\n      tag_84\n      jump\t// in\n    tag_178:\n        /* \"#utility.yul\":6705:6777   */\n      tag_179\n        /* \"#utility.yul\":6773:6775   */\n      0x40\n        /* \"#utility.yul\":6762:6771   */\n      dup4\n        /* \"#utility.yul\":6758:6776   */\n      add\n        /* \"#utility.yul\":6749:6755   */\n      dup10\n        /* \"#utility.yul\":6705:6777   */\n      tag_87\n      jump\t// in\n    tag_179:\n        /* \"#utility.yul\":6787:6859   */\n      tag_180\n        /* \"#utility.yul\":6855:6857   */\n      0x60\n        /* \"#utility.yul\":6844:6853   */\n      dup4\n        /* \"#utility.yul\":6840:6858   */\n      add\n        /* \"#utility.yul\":6831:6837   */\n      dup9\n        /* \"#utility.yul\":6787:6859   */\n      tag_87\n      jump\t// in\n    tag_180:\n        /* \"#utility.yul\":6869:6950   */\n      tag_181\n        /* \"#utility.yul\":6945:6948   */\n      0x80\n        /* \"#utility.yul\":6934:6943   */\n      dup4\n        /* \"#utility.yul\":6930:6949   */\n      add\n        /* \"#utility.yul\":6921:6927   */\n      dup8\n        /* \"#utility.yul\":6869:6950   */\n      tag_91\n      jump\t// in\n    tag_181:\n        /* \"#utility.yul\":6960:7041   */\n      tag_182\n        /* \"#utility.yul\":7036:7039   */\n      0xa0\n        /* \"#utility.yul\":7025:7034   */\n      dup4\n        /* \"#utility.yul\":7021:7040   */\n      add\n        /* \"#utility.yul\":7012:7018   */\n      dup7\n        /* \"#utility.yul\":6960:7041   */\n      tag_91\n      jump\t// in\n    tag_182:\n        /* \"#utility.yul\":7051:7124   */\n      tag_183\n        /* \"#utility.yul\":7119:7122   */\n      0xc0\n        /* \"#utility.yul\":7108:7117   */\n      dup4\n        /* \"#utility.yul\":7104:7123   */\n      add\n        /* \"#utility.yul\":7095:7101   */\n      dup6\n        /* \"#utility.yul\":7051:7124   */\n      tag_84\n      jump\t// in\n    tag_183:\n        /* \"#utility.yul\":7134:7207   */\n      tag_184\n        /* \"#utility.yul\":7202:7205   */\n      0xe0\n        /* \"#utility.yul\":7191:7200   */\n      dup4\n        /* \"#utility.yul\":7187:7206   */\n      add\n        /* \"#utility.yul\":7178:7184   */\n      dup5\n        /* \"#utility.yul\":7134:7207   */\n      tag_87\n      jump\t// in\n    tag_184:\n        /* \"#utility.yul\":6185:7214   */\n      swap10\n      swap9\n      pop\n      pop\n      pop\n      pop\n      pop\n      pop\n      pop\n      pop\n      pop\n      jump\t// out\n        /* \"#utility.yul\":7220:7883   */\n    tag_45:\n        /* \"#utility.yul\":7308:7314   */\n      0x00\n        /* \"#utility.yul\":7316:7322   */\n      dup1\n        /* \"#utility.yul\":7324:7330   */\n      0x00\n        /* \"#utility.yul\":7373:7375   */\n      0x60\n        /* \"#utility.yul\":7361:7370   */\n      dup5\n        /* \"#utility.yul\":7352:7359   */\n      dup7\n        /* \"#utility.yul\":7348:7371   */\n      sub\n        /* \"#utility.yul\":7344:7376   */\n      slt\n        /* \"#utility.yul\":7341:7460   */\n      iszero\n      tag_186\n      jumpi\n        /* \"#utility.yul\":7379:7458   */\n      tag_187\n      tag_75\n      jump\t// in\n    tag_187:\n        /* \"#utility.yul\":7341:7460   */\n    tag_186:\n        /* \"#utility.yul\":7499:7500   */\n      0x00\n        /* \"#utility.yul\":7524:7588   */\n      tag_188\n        /* \"#utility.yul\":7580:7587   */\n      dup7\n        /* \"#utility.yul\":7571:7577   */\n      dup3\n        /* \"#utility.yul\":7560:7569   */\n      dup8\n        /* \"#utility.yul\":7556:7578   */\n      add\n        /* \"#utility.yul\":7524:7588   */\n      tag_86\n      jump\t// in\n    tag_188:\n        /* \"#utility.yul\":7514:7588   */\n      swap4\n      pop\n        /* \"#utility.yul\":7470:7598   */\n      pop\n        /* \"#utility.yul\":7637:7639   */\n      0x20\n        /* \"#utility.yul\":7663:7727   */\n      tag_189\n        /* \"#utility.yul\":7719:7726   */\n      dup7\n        /* \"#utility.yul\":7710:7716   */\n      dup3\n        /* \"#utility.yul\":7699:7708   */\n      dup8\n        /* \"#utility.yul\":7695:7717   */\n      add\n        /* \"#utility.yul\":7663:7727   */\n      tag_86\n      jump\t// in\n    tag_189:\n        /* \"#utility.yul\":7653:7727   */\n      swap3\n      pop\n        /* \"#utility.yul\":7608:7737   */\n      pop\n        /* \"#utility.yul\":7776:7778   */\n      0x40\n        /* \"#utility.yul\":7802:7866   */\n      tag_190\n        /* \"#utility.yul\":7858:7865   */\n      dup7\n        /* \"#utility.yul\":7849:7855   */\n      dup3\n        /* \"#utility.yul\":7838:7847   */\n      dup8\n        /* \"#utility.yul\":7834:7856   */\n      add\n        /* \"#utility.yul\":7802:7866   */\n      tag_86\n      jump\t// in\n    tag_190:\n        /* \"#utility.yul\":7792:7866   */\n      swap2\n      pop\n        /* \"#utility.yul\":7747:7876   */\n      pop\n        /* \"#utility.yul\":7220:7883   */\n      swap3\n      pop\n      swap3\n      pop\n      swap3\n      jump\t// out\n        /* \"#utility.yul\":7889:8221   */\n    tag_48:\n        /* \"#utility.yul\":8010:8014   */\n      0x00\n        /* \"#utility.yul\":8048:8050   */\n      0x40\n        /* \"#utility.yul\":8037:8046   */\n      dup3\n        /* \"#utility.yul\":8033:8051   */\n      add\n        /* \"#utility.yul\":8025:8051   */\n      swap1\n      pop\n        /* \"#utility.yul\":8061:8132   */\n      tag_192\n        /* \"#utility.yul\":8129:8130   */\n      0x00\n        /* \"#utility.yul\":8118:8127   */\n      dup4\n        /* \"#utility.yul\":8114:8131   */\n      add\n        /* \"#utility.yul\":8105:8111   */\n      dup6\n        /* \"#utility.yul\":8061:8132   */\n      tag_84\n      jump\t// in\n    tag_192:\n        /* \"#utility.yul\":8142:8214   */\n      tag_193\n        /* \"#utility.yul\":8210:8212   */\n      0x20\n        /* \"#utility.yul\":8199:8208   */\n      dup4\n        /* \"#utility.yul\":8195:8213   */\n      add\n        /* \"#utility.yul\":8186:8192   */\n      dup5\n        /* \"#utility.yul\":8142:8214   */\n      tag_87\n      jump\t// in\n    tag_193:\n        /* \"#utility.yul\":7889:8221   */\n      swap4\n      swap3\n      pop\n      pop\n      pop\n      jump\t// out\n        /* \"#utility.yul\":8227:8325   */\n    tag_92:\n        /* \"#utility.yul\":8278:8284   */\n      0x00\n        /* \"#utility.yul\":8312:8317   */\n      dup2\n        /* \"#utility.yul\":8306:8318   */\n      mload\n        /* \"#utility.yul\":8296:8318   */\n      swap1\n      pop\n        /* \"#utility.yul\":8227:8325   */\n      swap2\n      swap1\n      pop\n      jump\t// out\n        /* \"#utility.yul\":8331:8478   */\n    tag_93:\n        /* \"#utility.yul\":8432:8443   */\n      0x00\n        /* \"#utility.yul\":8469:8472   */\n      dup2\n        /* \"#utility.yul\":8454:8472   */\n      swap1\n      pop\n        /* \"#utility.yul\":8331:8478   */\n      swap3\n      swap2\n      pop\n      pop\n      jump\t// out\n        /* \"#utility.yul\":8484:8623   */\n    tag_94:\n        /* \"#utility.yul\":8573:8579   */\n      dup3\n        /* \"#utility.yul\":8568:8571   */\n      dup2\n        /* \"#utility.yul\":8563:8566   */\n      dup4\n        /* \"#utility.yul\":8557:8580   */\n      mcopy\n        /* \"#utility.yul\":8614:8615   */\n      0x00\n        /* \"#utility.yul\":8605:8611   */\n      dup4\n        /* \"#utility.yul\":8600:8603   */\n      dup4\n        /* \"#utility.yul\":8596:8612   */\n      add\n        /* \"#utility.yul\":8589:8616   */\n      mstore\n        /* \"#utility.yul\":8484:8623   */\n      pop\n      pop\n      pop\n      jump\t// out\n        /* \"#utility.yul\":8629:9015   */\n    tag_95:\n        /* \"#utility.yul\":8733:8736   */\n      0x00\n        /* \"#utility.yul\":8761:8799   */\n      tag_198\n        /* \"#utility.yul\":8793:8798   */\n      dup3\n        /* \"#utility.yul\":8761:8799   */\n      tag_92\n      jump\t// in\n    tag_198:\n        /* \"#utility.yul\":8815:8903   */\n      tag_199\n        /* \"#utility.yul\":8896:8902   */\n      dup2\n        /* \"#utility.yul\":8891:8894   */\n      dup6\n        /* \"#utility.yul\":8815:8903   */\n      tag_93\n      jump\t// in\n    tag_199:\n        /* \"#utility.yul\":8808:8903   */\n      swap4\n      pop\n        /* \"#utility.yul\":8912:8977   */\n      tag_200\n        /* \"#utility.yul\":8970:8976   */\n      dup2\n        /* \"#utility.yul\":8965:8968   */\n      dup6\n        /* \"#utility.yul\":8958:8962   */\n      0x20\n        /* \"#utility.yul\":8951:8956   */\n      dup7\n        /* \"#utility.yul\":8947:8963   */\n      add\n        /* \"#utility.yul\":8912:8977   */\n      tag_94\n      jump\t// in\n    tag_200:\n        /* \"#utility.yul\":9002:9008   */\n      dup1\n        /* \"#utility.yul\":8997:9000   */\n      dup5\n        /* \"#utility.yul\":8993:9009   */\n      add\n        /* \"#utility.yul\":8986:9009   */\n      swap2\n      pop\n        /* \"#utility.yul\":8737:9015   */\n      pop\n        /* \"#utility.yul\":8629:9015   */\n      swap3\n      swap2\n      pop\n      pop\n      jump\t// out\n        /* \"#utility.yul\":9021:9292   */\n    tag_50:\n        /* \"#utility.yul\":9151:9154   */\n      0x00\n        /* \"#utility.yul\":9173:9266   */\n      tag_202\n        /* \"#utility.yul\":9262:9265   */\n      dup3\n        /* \"#utility.yul\":9253:9259   */\n      dup5\n        /* \"#utility.yul\":9173:9266   */\n      tag_95\n      jump\t// in\n    tag_202:\n        /* \"#utility.yul\":9166:9266   */\n      swap2\n      pop\n        /* \"#utility.yul\":9283:9286   */\n      dup2\n        /* \"#utility.yul\":9276:9286   */\n      swap1\n      pop\n        /* \"#utility.yul\":9021:9292   */\n      swap3\n      swap2\n      pop\n      pop\n      jump\t// out\n        /* \"#utility.yul\":9298:9388   */\n    tag_96:\n        /* \"#utility.yul\":9332:9339   */\n      0x00\n        /* \"#utility.yul\":9375:9380   */\n      dup2\n        /* \"#utility.yul\":9368:9381   */\n      iszero\n        /* \"#utility.yul\":9361:9382   */\n      iszero\n        /* \"#utility.yul\":9350:9382   */\n      swap1\n      pop\n        /* \"#utility.yul\":9298:9388   */\n      swap2\n      swap1\n      pop\n      jump\t// out\n        /* \"#utility.yul\":9394:9510   */\n    tag_97:\n        /* \"#utility.yul\":9464:9485   */\n      tag_205\n        /* \"#utility.yul\":9479:9484   */\n      dup2\n        /* \"#utility.yul\":9464:9485   */\n      tag_96\n      jump\t// in\n    tag_205:\n        /* \"#utility.yul\":9457:9462   */\n      dup2\n        /* \"#utility.yul\":9454:9486   */\n      eq\n        /* \"#utility.yul\":9444:9504   */\n      tag_206\n      jumpi\n        /* \"#utility.yul\":9500:9501   */\n      0x00\n        /* \"#utility.yul\":9497:9498   */\n      dup1\n        /* \"#utility.yul\":9490:9502   */\n      revert\n        /* \"#utility.yul\":9444:9504   */\n    tag_206:\n        /* \"#utility.yul\":9394:9510   */\n      pop\n      jump\t// out\n        /* \"#utility.yul\":9516:9653   */\n    tag_98:\n        /* \"#utility.yul\":9570:9575   */\n      0x00\n        /* \"#utility.yul\":9601:9607   */\n      dup2\n        /* \"#utility.yul\":9595:9608   */\n      mload\n        /* \"#utility.yul\":9586:9608   */\n      swap1\n      pop\n        /* \"#utility.yul\":9617:9647   */\n      tag_208\n        /* \"#utility.yul\":9641:9646   */\n      dup2\n        /* \"#utility.yul\":9617:9647   */\n      tag_97\n      jump\t// in\n    tag_208:\n        /* \"#utility.yul\":9516:9653   */\n      swap3\n      swap2\n      pop\n      pop\n      jump\t// out\n        /* \"#utility.yul\":9659:10004   */\n    tag_57:\n        /* \"#utility.yul\":9726:9732   */\n      0x00\n        /* \"#utility.yul\":9775:9777   */\n      0x20\n        /* \"#utility.yul\":9763:9772   */\n      dup3\n        /* \"#utility.yul\":9754:9761   */\n      dup5\n        /* \"#utility.yul\":9750:9773   */\n      sub\n        /* \"#utility.yul\":9746:9778   */\n      slt\n        /* \"#utility.yul\":9743:9862   */\n      iszero\n      tag_210\n      jumpi\n        /* \"#utility.yul\":9781:9860   */\n      tag_211\n      tag_75\n      jump\t// in\n    tag_211:\n        /* \"#utility.yul\":9743:9862   */\n    tag_210:\n        /* \"#utility.yul\":9901:9902   */\n      0x00\n        /* \"#utility.yul\":9926:9987   */\n      tag_212\n        /* \"#utility.yul\":9979:9986   */\n      dup5\n        /* \"#utility.yul\":9970:9976   */\n      dup3\n        /* \"#utility.yul\":9959:9968   */\n      dup6\n        /* \"#utility.yul\":9955:9977   */\n      add\n        /* \"#utility.yul\":9926:9987   */\n      tag_98\n      jump\t// in\n    tag_212:\n        /* \"#utility.yul\":9916:9987   */\n      swap2\n      pop\n        /* \"#utility.yul\":9872:9997   */\n      pop\n        /* \"#utility.yul\":9659:10004   */\n      swap3\n      swap2\n      pop\n      pop\n      jump\t// out\n        /* \"#utility.yul\":10010:10179   */\n    tag_99:\n        /* \"#utility.yul\":10094:10105   */\n      0x00\n        /* \"#utility.yul\":10128:10134   */\n      dup3\n        /* \"#utility.yul\":10123:10126   */\n      dup3\n        /* \"#utility.yul\":10116:10135   */\n      mstore\n        /* \"#utility.yul\":10168:10172   */\n      0x20\n        /* \"#utility.yul\":10163:10166   */\n      dup3\n        /* \"#utility.yul\":10159:10173   */\n      add\n        /* \"#utility.yul\":10144:10173   */\n      swap1\n      pop\n        /* \"#utility.yul\":10010:10179   */\n      swap3\n      swap2\n      pop\n      pop\n      jump\t// out\n        /* \"#utility.yul\":10185:10347   */\n    tag_100:\n        /* \"#utility.yul\":10325:10339   */\n      0x417070726f7665206661696c0000000000000000000000000000000000000000\n        /* \"#utility.yul\":10321:10322   */\n      0x00\n        /* \"#utility.yul\":10313:10319   */\n      dup3\n        /* \"#utility.yul\":10309:10323   */\n      add\n        /* \"#utility.yul\":10302:10340   */\n      mstore\n        /* \"#utility.yul\":10185:10347   */\n      pop\n      jump\t// out\n        /* \"#utility.yul\":10353:10719   */\n    tag_101:\n        /* \"#utility.yul\":10495:10498   */\n      0x00\n        /* \"#utility.yul\":10516:10583   */\n      tag_216\n        /* \"#utility.yul\":10580:10582   */\n      0x0c\n        /* \"#utility.yul\":10575:10578   */\n      dup4\n        /* \"#utility.yul\":10516:10583   */\n      tag_99\n      jump\t// in\n    tag_216:\n        /* \"#utility.yul\":10509:10583   */\n      swap2\n      pop\n        /* \"#utility.yul\":10592:10685   */\n      tag_217\n        /* \"#utility.yul\":10681:10684   */\n      dup3\n        /* \"#utility.yul\":10592:10685   */\n      tag_100\n      jump\t// in\n    tag_217:\n        /* \"#utility.yul\":10710:10712   */\n      0x20\n        /* \"#utility.yul\":10705:10708   */\n      dup3\n        /* \"#utility.yul\":10701:10713   */\n      add\n        /* \"#utility.yul\":10694:10713   */\n      swap1\n      pop\n        /* \"#utility.yul\":10353:10719   */\n      swap2\n      swap1\n      pop\n      jump\t// out\n        /* \"#utility.yul\":10725:11144   */\n    tag_60:\n        /* \"#utility.yul\":10891:10895   */\n      0x00\n        /* \"#utility.yul\":10929:10931   */\n      0x20\n        /* \"#utility.yul\":10918:10927   */\n      dup3\n        /* \"#utility.yul\":10914:10932   */\n      add\n        /* \"#utility.yul\":10906:10932   */\n      swap1\n      pop\n        /* \"#utility.yul\":10978:10987   */\n      dup2\n        /* \"#utility.yul\":10972:10976   */\n      dup2\n        /* \"#utility.yul\":10968:10988   */\n      sub\n        /* \"#utility.yul\":10964:10965   */\n      0x00\n        /* \"#utility.yul\":10953:10962   */\n      dup4\n        /* \"#utility.yul\":10949:10966   */\n      add\n        /* \"#utility.yul\":10942:10989   */\n      mstore\n        /* \"#utility.yul\":11006:11137   */\n      tag_219\n        /* \"#utility.yul\":11132:11136   */\n      dup2\n        /* \"#utility.yul\":11006:11137   */\n      tag_101\n      jump\t// in\n    tag_219:\n        /* \"#utility.yul\":10998:11137   */\n      swap1\n      pop\n        /* \"#utility.yul\":10725:11144   */\n      swap2\n      swap1\n      pop\n      jump\t// out\n        /* \"#utility.yul\":11150:11592   */\n    tag_63:\n        /* \"#utility.yul\":11299:11303   */\n      0x00\n        /* \"#utility.yul\":11337:11339   */\n      0x60\n        /* \"#utility.yul\":11326:11335   */\n      dup3\n        /* \"#utility.yul\":11322:11340   */\n      add\n        /* \"#utility.yul\":11314:11340   */\n      swap1\n      pop\n        /* \"#utility.yul\":11350:11421   */\n      tag_221\n        /* \"#utility.yul\":11418:11419   */\n      0x00\n        /* \"#utility.yul\":11407:11416   */\n      dup4\n        /* \"#utility.yul\":11403:11420   */\n      add\n        /* \"#utility.yul\":11394:11400   */\n      dup7\n        /* \"#utility.yul\":11350:11421   */\n      tag_84\n      jump\t// in\n    tag_221:\n        /* \"#utility.yul\":11431:11503   */\n      tag_222\n        /* \"#utility.yul\":11499:11501   */\n      0x20\n        /* \"#utility.yul\":11488:11497   */\n      dup4\n        /* \"#utility.yul\":11484:11502   */\n      add\n        /* \"#utility.yul\":11475:11481   */\n      dup6\n        /* \"#utility.yul\":11431:11503   */\n      tag_84\n      jump\t// in\n    tag_222:\n        /* \"#utility.yul\":11513:11585   */\n      tag_223\n        /* \"#utility.yul\":11581:11583   */\n      0x40\n        /* \"#utility.yul\":11570:11579   */\n      dup4\n        /* \"#utility.yul\":11566:11584   */\n      add\n        /* \"#utility.yul\":11557:11563   */\n      dup5\n        /* \"#utility.yul\":11513:11585   */\n      tag_87\n      jump\t// in\n    tag_223:\n        /* \"#utility.yul\":11150:11592   */\n      swap5\n      swap4\n      pop\n      pop\n      pop\n      pop\n      jump\t// out\n        /* \"#utility.yul\":11598:11766   */\n    tag_102:\n        /* \"#utility.yul\":11738:11758   */\n      0x5472616e736665722066726f6d206661696c0000000000000000000000000000\n        /* \"#utility.yul\":11734:11735   */\n      0x00\n        /* \"#utility.yul\":11726:11732   */\n      dup3\n        /* \"#utility.yul\":11722:11736   */\n      add\n        /* \"#utility.yul\":11715:11759   */\n      mstore\n        /* \"#utility.yul\":11598:11766   */\n      pop\n      jump\t// out\n        /* \"#utility.yul\":11772:12138   */\n    tag_103:\n        /* \"#utility.yul\":11914:11917   */\n      0x00\n        /* \"#utility.yul\":11935:12002   */\n      tag_226\n        /* \"#utility.yul\":11999:12001   */\n      0x12\n        /* \"#utility.yul\":11994:11997   */\n      dup4\n        /* \"#utility.yul\":11935:12002   */\n      tag_99\n      jump\t// in\n    tag_226:\n        /* \"#utility.yul\":11928:12002   */\n      swap2\n      pop\n        /* \"#utility.yul\":12011:12104   */\n      tag_227\n        /* \"#utility.yul\":12100:12103   */\n      dup3\n        /* \"#utility.yul\":12011:12104   */\n      tag_102\n      jump\t// in\n    tag_227:\n        /* \"#utility.yul\":12129:12131   */\n      0x20\n        /* \"#utility.yul\":12124:12127   */\n      dup3\n        /* \"#utility.yul\":12120:12132   */\n      add\n        /* \"#utility.yul\":12113:12132   */\n      swap1\n      pop\n        /* \"#utility.yul\":11772:12138   */\n      swap2\n      swap1\n      pop\n      jump\t// out\n        /* \"#utility.yul\":12144:12563   */\n    tag_73:\n        /* \"#utility.yul\":12310:12314   */\n      0x00\n        /* \"#utility.yul\":12348:12350   */\n      0x20\n        /* \"#utility.yul\":12337:12346   */\n      dup3\n        /* \"#utility.yul\":12333:12351   */\n      add\n        /* \"#utility.yul\":12325:12351   */\n      swap1\n      pop\n        /* \"#utility.yul\":12397:12406   */\n      dup2\n        /* \"#utility.yul\":12391:12395   */\n      dup2\n        /* \"#utility.yul\":12387:12407   */\n      sub\n        /* \"#utility.yul\":12383:12384   */\n      0x00\n        /* \"#utility.yul\":12372:12381   */\n      dup4\n        /* \"#utility.yul\":12368:12385   */\n      add\n        /* \"#utility.yul\":12361:12408   */\n      mstore\n        /* \"#utility.yul\":12425:12556   */\n      tag_229\n        /* \"#utility.yul\":12551:12555   */\n      dup2\n        /* \"#utility.yul\":12425:12556   */\n      tag_103\n      jump\t// in\n    tag_229:\n        /* \"#utility.yul\":12417:12556   */\n      swap1\n      pop\n        /* \"#utility.yul\":12144:12563   */\n      swap2\n      swap1\n      pop\n      jump\t// out\n\n    auxdata: 0xa26469706673582212202c0556208451674221dbcb62aa785d42ee076a793c1836b1ad0150644fcc4fe564736f6c634300081a0033\n}\n",
				"bytecode": {
					"linkReferences": {},
					"object": "6080604052348015600e575f80fd5b50610ba98061001c5f395ff3fe608060405234801561000f575f80fd5b5060043610610034575f3560e01c80639cf38f7c14610038578063cf6c62ea14610054575b5f80fd5b610052600480360381019061004d9190610605565b610070565b005b61006e60048036038101906100699190610676565b610242565b005b5f73ec12c2efe5a1a8fc15d98c3d1d20ce3e1097bb2073ffffffffffffffffffffffffffffffffffffffff1663e6a4390584846040518363ffffffff1660e01b81526004016100c09291906106e9565b602060405180830381865afa1580156100db573d5f803e3d5ffd5b505050506040513d601f19601f820116820180604052508101906100ff9190610724565b90505f8173ffffffffffffffffffffffffffffffffffffffff166370a08231306040518263ffffffff1660e01b815260040161013b919061074f565b602060405180830381865afa158015610156573d5f803e3d5ffd5b505050506040513d601f19601f8201168201806040525081019061017a919061077c565b905061019b8273894d5d7aba09bb36378f2d72094b270ddd915cad83610346565b5f8073894d5d7aba09bb36378f2d72094b270ddd915cad73ffffffffffffffffffffffffffffffffffffffff1663baa2abde87878660018030426040518863ffffffff1660e01b81526004016101f797969594939291906107f8565b60408051808303815f875af1158015610212573d5f803e3d5ffd5b505050506040513d601f19601f820116820180604052508101906102369190610865565b91509150505050505050565b61024e84333085610475565b61025a83333084610475565b6102798473894d5d7aba09bb36378f2d72094b270ddd915cad84610346565b6102988373894d5d7aba09bb36378f2d72094b270ddd915cad83610346565b5f805f73894d5d7aba09bb36378f2d72094b270ddd915cad73ffffffffffffffffffffffffffffffffffffffff1663e8e337008888888860018030426040518963ffffffff1660e01b81526004016102f79897969594939291906108a3565b6060604051808303815f875af1158015610313573d5f803e3d5ffd5b505050506040513d601f19601f82011682018060405250810190610337919061091f565b92509250925050505050505050565b5f808473ffffffffffffffffffffffffffffffffffffffff16848460405160240161037292919061096f565b60405160208183030381529060405263095ea7b360e01b6020820180517bffffffffffffffffffffffffffffffffffffffffffffffffffffffff83818316178352505050506040516103c491906109e8565b5f604051808303815f865af19150503d805f81146103fd576040519150601f19603f3d011682016040523d82523d5f602084013e610402565b606091505b509150915081801561042f57505f8151148061042e57508080602001905181019061042d9190610a33565b5b5b61046e576040517f08c379a000000000000000000000000000000000000000000000000000000000815260040161046590610ab8565b60405180910390fd5b5050505050565b5f808573ffffffffffffffffffffffffffffffffffffffff168585856040516024016104a393929190610ad6565b6040516020818303038152906040526323b872dd60e01b6020820180517bffffffffffffffffffffffffffffffffffffffffffffffffffffffff83818316178352505050506040516104f591906109e8565b5f604051808303815f865af19150503d805f811461052e576040519150601f19603f3d011682016040523d82523d5f602084013e610533565b606091505b509150915081801561056057505f8151148061055f57508080602001905181019061055e9190610a33565b5b5b61059f576040517f08c379a000000000000000000000000000000000000000000000000000000000815260040161059690610b55565b60405180910390fd5b505050505050565b5f80fd5b5f73ffffffffffffffffffffffffffffffffffffffff82169050919050565b5f6105d4826105ab565b9050919050565b6105e4816105ca565b81146105ee575f80fd5b50565b5f813590506105ff816105db565b92915050565b5f806040838503121561061b5761061a6105a7565b5b5f610628858286016105f1565b9250506020610639858286016105f1565b9150509250929050565b5f819050919050565b61065581610643565b811461065f575f80fd5b50565b5f813590506106708161064c565b92915050565b5f805f806080858703121561068e5761068d6105a7565b5b5f61069b878288016105f1565b94505060206106ac878288016105f1565b93505060406106bd87828801610662565b92505060606106ce87828801610662565b91505092959194509250565b6106e3816105ca565b82525050565b5f6040820190506106fc5f8301856106da565b61070960208301846106da565b9392505050565b5f8151905061071e816105db565b92915050565b5f60208284031215610739576107386105a7565b5b5f61074684828501610710565b91505092915050565b5f6020820190506107625f8301846106da565b92915050565b5f815190506107768161064c565b92915050565b5f60208284031215610791576107906105a7565b5b5f61079e84828501610768565b91505092915050565b6107b081610643565b82525050565b5f819050919050565b5f819050919050565b5f6107e26107dd6107d8846107b6565b6107bf565b610643565b9050919050565b6107f2816107c8565b82525050565b5f60e08201905061080b5f83018a6106da565b61081860208301896106da565b61082560408301886107a7565b61083260608301876107e9565b61083f60808301866107e9565b61084c60a08301856106da565b61085960c08301846107a7565b98975050505050505050565b5f806040838503121561087b5761087a6105a7565b5b5f61088885828601610768565b925050602061089985828601610768565b9150509250929050565b5f610100820190506108b75f83018b6106da565b6108c4602083018a6106da565b6108d160408301896107a7565b6108de60608301886107a7565b6108eb60808301876107e9565b6108f860a08301866107e9565b61090560c08301856106da565b61091260e08301846107a7565b9998505050505050505050565b5f805f60608486031215610936576109356105a7565b5b5f61094386828701610768565b935050602061095486828701610768565b925050604061096586828701610768565b9150509250925092565b5f6040820190506109825f8301856106da565b61098f60208301846107a7565b9392505050565b5f81519050919050565b5f81905092915050565b8281835e5f83830152505050565b5f6109c282610996565b6109cc81856109a0565b93506109dc8185602086016109aa565b80840191505092915050565b5f6109f382846109b8565b915081905092915050565b5f8115159050919050565b610a12816109fe565b8114610a1c575f80fd5b50565b5f81519050610a2d81610a09565b92915050565b5f60208284031215610a4857610a476105a7565b5b5f610a5584828501610a1f565b91505092915050565b5f82825260208201905092915050565b7f417070726f7665206661696c00000000000000000000000000000000000000005f82015250565b5f610aa2600c83610a5e565b9150610aad82610a6e565b602082019050919050565b5f6020820190508181035f830152610acf81610a96565b9050919050565b5f606082019050610ae95f8301866106da565b610af660208301856106da565b610b0360408301846107a7565b949350505050565b7f5472616e736665722066726f6d206661696c00000000000000000000000000005f82015250565b5f610b3f601283610a5e565b9150610b4a82610b0b565b602082019050919050565b5f6020820190508181035f830152610b6c81610b33565b905091905056fea26469706673582212202c0556208451674221dbcb62aa785d42ee076a793c1836b1ad0150644fcc4fe564736f6c634300081a0033",
					"opcodes": "PUSH1 0x80 PUSH1 0x40 MSTORE CALLVALUE DUP1 ISZERO PUSH1 0xE JUMPI PUSH0 DUP1 REVERT JUMPDEST POP PUSH2 0xBA9 DUP1 PUSH2 0x1C PUSH0 CODECOPY PUSH0 RETURN INVALID PUSH1 0x80 PUSH1 0x40 MSTORE CALLVALUE DUP1 ISZERO PUSH2 0xF JUMPI PUSH0 DUP1 REVERT JUMPDEST POP PUSH1 0x4 CALLDATASIZE LT PUSH2 0x34 JUMPI PUSH0 CALLDATALOAD PUSH1 0xE0 SHR DUP1 PUSH4 0x9CF38F7C EQ PUSH2 0x38 JUMPI DUP1 PUSH4 0xCF6C62EA EQ PUSH2 0x54 JUMPI JUMPDEST PUSH0 DUP1 REVERT JUMPDEST PUSH2 0x52 PUSH1 0x4 DUP1 CALLDATASIZE SUB DUP2 ADD SWAP1 PUSH2 0x4D SWAP2 SWAP1 PUSH2 0x605 JUMP JUMPDEST PUSH2 0x70 JUMP JUMPDEST STOP JUMPDEST PUSH2 0x6E PUSH1 0x4 DUP1 CALLDATASIZE SUB DUP2 ADD SWAP1 PUSH2 0x69 SWAP2 SWAP1 PUSH2 0x676 JUMP JUMPDEST PUSH2 0x242 JUMP JUMPDEST STOP JUMPDEST PUSH0 PUSH20 0xEC12C2EFE5A1A8FC15D98C3D1D20CE3E1097BB20 PUSH20 0xFFFFFFFFFFFFFFFFFFFFFFFFFFFFFFFFFFFFFFFF AND PUSH4 0xE6A43905 DUP5 DUP5 PUSH1 0x40 MLOAD DUP4 PUSH4 0xFFFFFFFF AND PUSH1 0xE0 SHL DUP2 MSTORE PUSH1 0x4 ADD PUSH2 0xC0 SWAP3 SWAP2 SWAP1 PUSH2 0x6E9 JUMP JUMPDEST PUSH1 0x20 PUSH1 0x40 MLOAD DUP1 DUP4 SUB DUP2 DUP7 GAS STATICCALL ISZERO DUP1 ISZERO PUSH2 0xDB JUMPI RETURNDATASIZE PUSH0 DUP1 RETURNDATACOPY RETURNDATASIZE PUSH0 REVERT JUMPDEST POP POP POP POP PUSH1 0x40 MLOAD RETURNDATASIZE PUSH1 0x1F NOT PUSH1 0x1F DUP3 ADD AND DUP3 ADD DUP1 PUSH1 0x40 MSTORE POP DUP2 ADD SWAP1 PUSH2 0xFF SWAP2 SWAP1 PUSH2 0x724 JUMP JUMPDEST SWAP1 POP PUSH0 DUP2 PUSH20 0xFFFFFFFFFFFFFFFFFFFFFFFFFFFFFFFFFFFFFFFF AND PUSH4 0x70A08231 ADDRESS PUSH1 0x40 MLOAD DUP3 PUSH4 0xFFFFFFFF AND PUSH1 0xE0 SHL DUP2 MSTORE PUSH1 0x4 ADD PUSH2 0x13B SWAP2 SWAP1 PUSH2 0x74F JUMP JUMPDEST PUSH1 0x20 PUSH1 0x40 MLOAD DUP1 DUP4 SUB DUP2 DUP7 GAS STATICCALL ISZERO DUP1 ISZERO PUSH2 0x156 JUMPI RETURNDATASIZE PUSH0 DUP1 RETURNDATACOPY RETURNDATASIZE PUSH0 REVERT JUMPDEST POP POP POP POP PUSH1 0x40 MLOAD RETURNDATASIZE PUSH1 0x1F NOT PUSH1 0x1F DUP3 ADD AND DUP3 ADD DUP1 PUSH1 0x40 MSTORE POP DUP2 ADD SWAP1 PUSH2 0x17A SWAP2 SWAP1 PUSH2 0x77C JUMP JUMPDEST SWAP1 POP PUSH2 0x19B DUP3 PUSH20 0x894D5D7ABA09BB36378F2D72094B270DDD915CAD DUP4 PUSH2 0x346 JUMP JUMPDEST PUSH0 DUP1 PUSH20 0x894D5D7ABA09BB36378F2D72094B270DDD915CAD PUSH20 0xFFFFFFFFFFFFFFFFFFFFFFFFFFFFFFFFFFFFFFFF AND PUSH4 0xBAA2ABDE DUP8 DUP8 DUP7 PUSH1 0x1 DUP1 ADDRESS TIMESTAMP PUSH1 0x40 MLOAD DUP9 PUSH4 0xFFFFFFFF AND PUSH1 0xE0 SHL DUP2 MSTORE PUSH1 0x4 ADD PUSH2 0x1F7 SWAP8 SWAP7 SWAP6 SWAP5 SWAP4 SWAP3 SWAP2 SWAP1 PUSH2 0x7F8 JUMP JUMPDEST PUSH1 0x40 DUP1 MLOAD DUP1 DUP4 SUB DUP2 PUSH0 DUP8 GAS CALL ISZERO DUP1 ISZERO PUSH2 0x212 JUMPI RETURNDATASIZE PUSH0 DUP1 RETURNDATACOPY RETURNDATASIZE PUSH0 REVERT JUMPDEST POP POP POP POP PUSH1 0x40 MLOAD RETURNDATASIZE PUSH1 0x1F NOT PUSH1 0x1F DUP3 ADD AND DUP3 ADD DUP1 PUSH1 0x40 MSTORE POP DUP2 ADD SWAP1 PUSH2 0x236 SWAP2 SWAP1 PUSH2 0x865 JUMP JUMPDEST SWAP2 POP SWAP2 POP POP POP POP POP POP POP JUMP JUMPDEST PUSH2 0x24E DUP5 CALLER ADDRESS DUP6 PUSH2 0x475 JUMP JUMPDEST PUSH2 0x25A DUP4 CALLER ADDRESS DUP5 PUSH2 0x475 JUMP JUMPDEST PUSH2 0x279 DUP5 PUSH20 0x894D5D7ABA09BB36378F2D72094B270DDD915CAD DUP5 PUSH2 0x346 JUMP JUMPDEST PUSH2 0x298 DUP4 PUSH20 0x894D5D7ABA09BB36378F2D72094B270DDD915CAD DUP4 PUSH2 0x346 JUMP JUMPDEST PUSH0 DUP1 PUSH0 PUSH20 0x894D5D7ABA09BB36378F2D72094B270DDD915CAD PUSH20 0xFFFFFFFFFFFFFFFFFFFFFFFFFFFFFFFFFFFFFFFF AND PUSH4 0xE8E33700 DUP9 DUP9 DUP9 DUP9 PUSH1 0x1 DUP1 ADDRESS TIMESTAMP PUSH1 0x40 MLOAD DUP10 PUSH4 0xFFFFFFFF AND PUSH1 0xE0 SHL DUP2 MSTORE PUSH1 0x4 ADD PUSH2 0x2F7 SWAP9 SWAP8 SWAP7 SWAP6 SWAP5 SWAP4 SWAP3 SWAP2 SWAP1 PUSH2 0x8A3 JUMP JUMPDEST PUSH1 0x60 PUSH1 0x40 MLOAD DUP1 DUP4 SUB DUP2 PUSH0 DUP8 GAS CALL ISZERO DUP1 ISZERO PUSH2 0x313 JUMPI RETURNDATASIZE PUSH0 DUP1 RETURNDATACOPY RETURNDATASIZE PUSH0 REVERT JUMPDEST POP POP POP POP PUSH1 0x40 MLOAD RETURNDATASIZE PUSH1 0x1F NOT PUSH1 0x1F DUP3 ADD AND DUP3 ADD DUP1 PUSH1 0x40 MSTORE POP DUP2 ADD SWAP1 PUSH2 0x337 SWAP2 SWAP1 PUSH2 0x91F JUMP JUMPDEST SWAP3 POP SWAP3 POP SWAP3 POP POP POP POP POP POP POP POP JUMP JUMPDEST PUSH0 DUP1 DUP5 PUSH20 0xFFFFFFFFFFFFFFFFFFFFFFFFFFFFFFFFFFFFFFFF AND DUP5 DUP5 PUSH1 0x40 MLOAD PUSH1 0x24 ADD PUSH2 0x372 SWAP3 SWAP2 SWAP1 PUSH2 0x96F JUMP JUMPDEST PUSH1 0x40 MLOAD PUSH1 0x20 DUP2 DUP4 SUB SUB DUP2 MSTORE SWAP1 PUSH1 0x40 MSTORE PUSH4 0x95EA7B3 PUSH1 0xE0 SHL PUSH1 0x20 DUP3 ADD DUP1 MLOAD PUSH28 0xFFFFFFFFFFFFFFFFFFFFFFFFFFFFFFFFFFFFFFFFFFFFFFFFFFFFFFFF DUP4 DUP2 DUP4 AND OR DUP4 MSTORE POP POP POP POP PUSH1 0x40 MLOAD PUSH2 0x3C4 SWAP2 SWAP1 PUSH2 0x9E8 JUMP JUMPDEST PUSH0 PUSH1 0x40 MLOAD DUP1 DUP4 SUB DUP2 PUSH0 DUP7 GAS CALL SWAP2 POP POP RETURNDATASIZE DUP1 PUSH0 DUP2 EQ PUSH2 0x3FD JUMPI PUSH1 0x40 MLOAD SWAP2 POP PUSH1 0x1F NOT PUSH1 0x3F RETURNDATASIZE ADD AND DUP3 ADD PUSH1 0x40 MSTORE RETURNDATASIZE DUP3 MSTORE RETURNDATASIZE PUSH0 PUSH1 0x20 DUP5 ADD RETURNDATACOPY PUSH2 0x402 JUMP JUMPDEST PUSH1 0x60 SWAP2 POP JUMPDEST POP SWAP2 POP SWAP2 POP DUP2 DUP1 ISZERO PUSH2 0x42F JUMPI POP PUSH0 DUP2 MLOAD EQ DUP1 PUSH2 0x42E JUMPI POP DUP1 DUP1 PUSH1 0x20 ADD SWAP1 MLOAD DUP2 ADD SWAP1 PUSH2 0x42D SWAP2 SWAP1 PUSH2 0xA33 JUMP JUMPDEST JUMPDEST JUMPDEST PUSH2 0x46E JUMPI PUSH1 0x40 MLOAD PUSH32 0x8C379A000000000000000000000000000000000000000000000000000000000 DUP2 MSTORE PUSH1 0x4 ADD PUSH2 0x465 SWAP1 PUSH2 0xAB8 JUMP JUMPDEST PUSH1 0x40 MLOAD DUP1 SWAP2 SUB SWAP1 REVERT JUMPDEST POP POP POP POP POP JUMP JUMPDEST PUSH0 DUP1 DUP6 PUSH20 0xFFFFFFFFFFFFFFFFFFFFFFFFFFFFFFFFFFFFFFFF AND DUP6 DUP6 DUP6 PUSH1 0x40 MLOAD PUSH1 0x24 ADD PUSH2 0x4A3 SWAP4 SWAP3 SWAP2 SWAP1 PUSH2 0xAD6 JUMP JUMPDEST PUSH1 0x40 MLOAD PUSH1 0x20 DUP2 DUP4 SUB SUB DUP2 MSTORE SWAP1 PUSH1 0x40 MSTORE PUSH4 0x23B872DD PUSH1 0xE0 SHL PUSH1 0x20 DUP3 ADD DUP1 MLOAD PUSH28 0xFFFFFFFFFFFFFFFFFFFFFFFFFFFFFFFFFFFFFFFFFFFFFFFFFFFFFFFF DUP4 DUP2 DUP4 AND OR DUP4 MSTORE POP POP POP POP PUSH1 0x40 MLOAD PUSH2 0x4F5 SWAP2 SWAP1 PUSH2 0x9E8 JUMP JUMPDEST PUSH0 PUSH1 0x40 MLOAD DUP1 DUP4 SUB DUP2 PUSH0 DUP7 GAS CALL SWAP2 POP POP RETURNDATASIZE DUP1 PUSH0 DUP2 EQ PUSH2 0x52E JUMPI PUSH1 0x40 MLOAD SWAP2 POP PUSH1 0x1F NOT PUSH1 0x3F RETURNDATASIZE ADD AND DUP3 ADD PUSH1 0x40 MSTORE RETURNDATASIZE DUP3 MSTORE RETURNDATASIZE PUSH0 PUSH1 0x20 DUP5 ADD RETURNDATACOPY PUSH2 0x533 JUMP JUMPDEST PUSH1 0x60 SWAP2 POP JUMPDEST POP SWAP2 POP SWAP2 POP DUP2 DUP1 ISZERO PUSH2 0x560 JUMPI POP PUSH0 DUP2 MLOAD EQ DUP1 PUSH2 0x55F JUMPI POP DUP1 DUP1 PUSH1 0x20 ADD SWAP1 MLOAD DUP2 ADD SWAP1 PUSH2 0x55E SWAP2 SWAP1 PUSH2 0xA33 JUMP JUMPDEST JUMPDEST JUMPDEST PUSH2 0x59F JUMPI PUSH1 0x40 MLOAD PUSH32 0x8C379A000000000000000000000000000000000000000000000000000000000 DUP2 MSTORE PUSH1 0x4 ADD PUSH2 0x596 SWAP1 PUSH2 0xB55 JUMP JUMPDEST PUSH1 0x40 MLOAD DUP1 SWAP2 SUB SWAP1 REVERT JUMPDEST POP POP POP POP POP POP JUMP JUMPDEST PUSH0 DUP1 REVERT JUMPDEST PUSH0 PUSH20 0xFFFFFFFFFFFFFFFFFFFFFFFFFFFFFFFFFFFFFFFF DUP3 AND SWAP1 POP SWAP2 SWAP1 POP JUMP JUMPDEST PUSH0 PUSH2 0x5D4 DUP3 PUSH2 0x5AB JUMP JUMPDEST SWAP1 POP SWAP2 SWAP1 POP JUMP JUMPDEST PUSH2 0x5E4 DUP2 PUSH2 0x5CA JUMP JUMPDEST DUP2 EQ PUSH2 0x5EE JUMPI PUSH0 DUP1 REVERT JUMPDEST POP JUMP JUMPDEST PUSH0 DUP2 CALLDATALOAD SWAP1 POP PUSH2 0x5FF DUP2 PUSH2 0x5DB JUMP JUMPDEST SWAP3 SWAP2 POP POP JUMP JUMPDEST PUSH0 DUP1 PUSH1 0x40 DUP4 DUP6 SUB SLT ISZERO PUSH2 0x61B JUMPI PUSH2 0x61A PUSH2 0x5A7 JUMP JUMPDEST JUMPDEST PUSH0 PUSH2 0x628 DUP6 DUP3 DUP7 ADD PUSH2 0x5F1 JUMP JUMPDEST SWAP3 POP POP PUSH1 0x20 PUSH2 0x639 DUP6 DUP3 DUP7 ADD PUSH2 0x5F1 JUMP JUMPDEST SWAP2 POP POP SWAP3 POP SWAP3 SWAP1 POP JUMP JUMPDEST PUSH0 DUP2 SWAP1 POP SWAP2 SWAP1 POP JUMP JUMPDEST PUSH2 0x655 DUP2 PUSH2 0x643 JUMP JUMPDEST DUP2 EQ PUSH2 0x65F JUMPI PUSH0 DUP1 REVERT JUMPDEST POP JUMP JUMPDEST PUSH0 DUP2 CALLDATALOAD SWAP1 POP PUSH2 0x670 DUP2 PUSH2 0x64C JUMP JUMPDEST SWAP3 SWAP2 POP POP JUMP JUMPDEST PUSH0 DUP1 PUSH0 DUP1 PUSH1 0x80 DUP6 DUP8 SUB SLT ISZERO PUSH2 0x68E JUMPI PUSH2 0x68D PUSH2 0x5A7 JUMP JUMPDEST JUMPDEST PUSH0 PUSH2 0x69B DUP8 DUP3 DUP9 ADD PUSH2 0x5F1 JUMP JUMPDEST SWAP5 POP POP PUSH1 0x20 PUSH2 0x6AC DUP8 DUP3 DUP9 ADD PUSH2 0x5F1 JUMP JUMPDEST SWAP4 POP POP PUSH1 0x40 PUSH2 0x6BD DUP8 DUP3 DUP9 ADD PUSH2 0x662 JUMP JUMPDEST SWAP3 POP POP PUSH1 0x60 PUSH2 0x6CE DUP8 DUP3 DUP9 ADD PUSH2 0x662 JUMP JUMPDEST SWAP2 POP POP SWAP3 SWAP6 SWAP2 SWAP5 POP SWAP3 POP JUMP JUMPDEST PUSH2 0x6E3 DUP2 PUSH2 0x5CA JUMP JUMPDEST DUP3 MSTORE POP POP JUMP JUMPDEST PUSH0 PUSH1 0x40 DUP3 ADD SWAP1 POP PUSH2 0x6FC PUSH0 DUP4 ADD DUP6 PUSH2 0x6DA JUMP JUMPDEST PUSH2 0x709 PUSH1 0x20 DUP4 ADD DUP5 PUSH2 0x6DA JUMP JUMPDEST SWAP4 SWAP3 POP POP POP JUMP JUMPDEST PUSH0 DUP2 MLOAD SWAP1 POP PUSH2 0x71E DUP2 PUSH2 0x5DB JUMP JUMPDEST SWAP3 SWAP2 POP POP JUMP JUMPDEST PUSH0 PUSH1 0x20 DUP3 DUP5 SUB SLT ISZERO PUSH2 0x739 JUMPI PUSH2 0x738 PUSH2 0x5A7 JUMP JUMPDEST JUMPDEST PUSH0 PUSH2 0x746 DUP5 DUP3 DUP6 ADD PUSH2 0x710 JUMP JUMPDEST SWAP2 POP POP SWAP3 SWAP2 POP POP JUMP JUMPDEST PUSH0 PUSH1 0x20 DUP3 ADD SWAP1 POP PUSH2 0x762 PUSH0 DUP4 ADD DUP5 PUSH2 0x6DA JUMP JUMPDEST SWAP3 SWAP2 POP POP JUMP JUMPDEST PUSH0 DUP2 MLOAD SWAP1 POP PUSH2 0x776 DUP2 PUSH2 0x64C JUMP JUMPDEST SWAP3 SWAP2 POP POP JUMP JUMPDEST PUSH0 PUSH1 0x20 DUP3 DUP5 SUB SLT ISZERO PUSH2 0x791 JUMPI PUSH2 0x790 PUSH2 0x5A7 JUMP JUMPDEST JUMPDEST PUSH0 PUSH2 0x79E DUP5 DUP3 DUP6 ADD PUSH2 0x768 JUMP JUMPDEST SWAP2 POP POP SWAP3 SWAP2 POP POP JUMP JUMPDEST PUSH2 0x7B0 DUP2 PUSH2 0x643 JUMP JUMPDEST DUP3 MSTORE POP POP JUMP JUMPDEST PUSH0 DUP2 SWAP1 POP SWAP2 SWAP1 POP JUMP JUMPDEST PUSH0 DUP2 SWAP1 POP SWAP2 SWAP1 POP JUMP JUMPDEST PUSH0 PUSH2 0x7E2 PUSH2 0x7DD PUSH2 0x7D8 DUP5 PUSH2 0x7B6 JUMP JUMPDEST PUSH2 0x7BF JUMP JUMPDEST PUSH2 0x643 JUMP JUMPDEST SWAP1 POP SWAP2 SWAP1 POP JUMP JUMPDEST PUSH2 0x7F2 DUP2 PUSH2 0x7C8 JUMP JUMPDEST DUP3 MSTORE POP POP JUMP JUMPDEST PUSH0 PUSH1 0xE0 DUP3 ADD SWAP1 POP PUSH2 0x80B PUSH0 DUP4 ADD DUP11 PUSH2 0x6DA JUMP JUMPDEST PUSH2 0x818 PUSH1 0x20 DUP4 ADD DUP10 PUSH2 0x6DA JUMP JUMPDEST PUSH2 0x825 PUSH1 0x40 DUP4 ADD DUP9 PUSH2 0x7A7 JUMP JUMPDEST PUSH2 0x832 PUSH1 0x60 DUP4 ADD DUP8 PUSH2 0x7E9 JUMP JUMPDEST PUSH2 0x83F PUSH1 0x80 DUP4 ADD DUP7 PUSH2 0x7E9 JUMP JUMPDEST PUSH2 0x84C PUSH1 0xA0 DUP4 ADD DUP6 PUSH2 0x6DA JUMP JUMPDEST PUSH2 0x859 PUSH1 0xC0 DUP4 ADD DUP5 PUSH2 0x7A7 JUMP JUMPDEST SWAP9 SWAP8 POP POP POP POP POP POP POP POP JUMP JUMPDEST PUSH0 DUP1 PUSH1 0x40 DUP4 DUP6 SUB SLT ISZERO PUSH2 0x87B JUMPI PUSH2 0x87A PUSH2 0x5A7 JUMP JUMPDEST JUMPDEST PUSH0 PUSH2 0x888 DUP6 DUP3 DUP7 ADD PUSH2 0x768 JUMP JUMPDEST SWAP3 POP POP PUSH1 0x20 PUSH2 0x899 DUP6 DUP3 DUP7 ADD PUSH2 0x768 JUMP JUMPDEST SWAP2 POP POP SWAP3 POP SWAP3 SWAP1 POP JUMP JUMPDEST PUSH0 PUSH2 0x100 DUP3 ADD SWAP1 POP PUSH2 0x8B7 PUSH0 DUP4 ADD DUP12 PUSH2 0x6DA JUMP JUMPDEST PUSH2 0x8C4 PUSH1 0x20 DUP4 ADD DUP11 PUSH2 0x6DA JUMP JUMPDEST PUSH2 0x8D1 PUSH1 0x40 DUP4 ADD DUP10 PUSH2 0x7A7 JUMP JUMPDEST PUSH2 0x8DE PUSH1 0x60 DUP4 ADD DUP9 PUSH2 0x7A7 JUMP JUMPDEST PUSH2 0x8EB PUSH1 0x80 DUP4 ADD DUP8 PUSH2 0x7E9 JUMP JUMPDEST PUSH2 0x8F8 PUSH1 0xA0 DUP4 ADD DUP7 PUSH2 0x7E9 JUMP JUMPDEST PUSH2 0x905 PUSH1 0xC0 DUP4 ADD DUP6 PUSH2 0x6DA JUMP JUMPDEST PUSH2 0x912 PUSH1 0xE0 DUP4 ADD DUP5 PUSH2 0x7A7 JUMP JUMPDEST SWAP10 SWAP9 POP POP POP POP POP POP POP POP POP JUMP JUMPDEST PUSH0 DUP1 PUSH0 PUSH1 0x60 DUP5 DUP7 SUB SLT ISZERO PUSH2 0x936 JUMPI PUSH2 0x935 PUSH2 0x5A7 JUMP JUMPDEST JUMPDEST PUSH0 PUSH2 0x943 DUP7 DUP3 DUP8 ADD PUSH2 0x768 JUMP JUMPDEST SWAP4 POP POP PUSH1 0x20 PUSH2 0x954 DUP7 DUP3 DUP8 ADD PUSH2 0x768 JUMP JUMPDEST SWAP3 POP POP PUSH1 0x40 PUSH2 0x965 DUP7 DUP3 DUP8 ADD PUSH2 0x768 JUMP JUMPDEST SWAP2 POP POP SWAP3 POP SWAP3 POP SWAP3 JUMP JUMPDEST PUSH0 PUSH1 0x40 DUP3 ADD SWAP1 POP PUSH2 0x982 PUSH0 DUP4 ADD DUP6 PUSH2 0x6DA JUMP JUMPDEST PUSH2 0x98F PUSH1 0x20 DUP4 ADD DUP5 PUSH2 0x7A7 JUMP JUMPDEST SWAP4 SWAP3 POP POP POP JUMP JUMPDEST PUSH0 DUP2 MLOAD SWAP1 POP SWAP2 SWAP1 POP JUMP JUMPDEST PUSH0 DUP2 SWAP1 POP SWAP3 SWAP2 POP POP JUMP JUMPDEST DUP3 DUP2 DUP4 MCOPY PUSH0 DUP4 DUP4 ADD MSTORE POP POP POP JUMP JUMPDEST PUSH0 PUSH2 0x9C2 DUP3 PUSH2 0x996 JUMP JUMPDEST PUSH2 0x9CC DUP2 DUP6 PUSH2 0x9A0 JUMP JUMPDEST SWAP4 POP PUSH2 0x9DC DUP2 DUP6 PUSH1 0x20 DUP7 ADD PUSH2 0x9AA JUMP JUMPDEST DUP1 DUP5 ADD SWAP2 POP POP SWAP3 SWAP2 POP POP JUMP JUMPDEST PUSH0 PUSH2 0x9F3 DUP3 DUP5 PUSH2 0x9B8 JUMP JUMPDEST SWAP2 POP DUP2 SWAP1 POP SWAP3 SWAP2 POP POP JUMP JUMPDEST PUSH0 DUP2 ISZERO ISZERO SWAP1 POP SWAP2 SWAP1 POP JUMP JUMPDEST PUSH2 0xA12 DUP2 PUSH2 0x9FE JUMP JUMPDEST DUP2 EQ PUSH2 0xA1C JUMPI PUSH0 DUP1 REVERT JUMPDEST POP JUMP JUMPDEST PUSH0 DUP2 MLOAD SWAP1 POP PUSH2 0xA2D DUP2 PUSH2 0xA09 JUMP JUMPDEST SWAP3 SWAP2 POP POP JUMP JUMPDEST PUSH0 PUSH1 0x20 DUP3 DUP5 SUB SLT ISZERO PUSH2 0xA48 JUMPI PUSH2 0xA47 PUSH2 0x5A7 JUMP JUMPDEST JUMPDEST PUSH0 PUSH2 0xA55 DUP5 DUP3 DUP6 ADD PUSH2 0xA1F JUMP JUMPDEST SWAP2 POP POP SWAP3 SWAP2 POP POP JUMP JUMPDEST PUSH0 DUP3 DUP3 MSTORE PUSH1 0x20 DUP3 ADD SWAP1 POP SWAP3 SWAP2 POP POP JUMP JUMPDEST PUSH32 0x417070726F7665206661696C0000000000000000000000000000000000000000 PUSH0 DUP3 ADD MSTORE POP JUMP JUMPDEST PUSH0 PUSH2 0xAA2 PUSH1 0xC DUP4 PUSH2 0xA5E JUMP JUMPDEST SWAP2 POP PUSH2 0xAAD DUP3 PUSH2 0xA6E JUMP JUMPDEST PUSH1 0x20 DUP3 ADD SWAP1 POP SWAP2 SWAP1 POP JUMP JUMPDEST PUSH0 PUSH1 0x20 DUP3 ADD SWAP1 POP DUP2 DUP2 SUB PUSH0 DUP4 ADD MSTORE PUSH2 0xACF DUP2 PUSH2 0xA96 JUMP JUMPDEST SWAP1 POP SWAP2 SWAP1 POP JUMP JUMPDEST PUSH0 PUSH1 0x60 DUP3 ADD SWAP1 POP PUSH2 0xAE9 PUSH0 DUP4 ADD DUP7 PUSH2 0x6DA JUMP JUMPDEST PUSH2 0xAF6 PUSH1 0x20 DUP4 ADD DUP6 PUSH2 0x6DA JUMP JUMPDEST PUSH2 0xB03 PUSH1 0x40 DUP4 ADD DUP5 PUSH2 0x7A7 JUMP JUMPDEST SWAP5 SWAP4 POP POP POP POP JUMP JUMPDEST PUSH32 0x5472616E736665722066726F6D206661696C0000000000000000000000000000 PUSH0 DUP3 ADD MSTORE POP JUMP JUMPDEST PUSH0 PUSH2 0xB3F PUSH1 0x12 DUP4 PUSH2 0xA5E JUMP JUMPDEST SWAP2 POP PUSH2 0xB4A DUP3 PUSH2 0xB0B JUMP JUMPDEST PUSH1 0x20 DUP3 ADD SWAP1 POP SWAP2 SWAP1 POP JUMP JUMPDEST PUSH0 PUSH1 0x20 DUP3 ADD SWAP1 POP DUP2 DUP2 SUB PUSH0 DUP4 ADD MSTORE PUSH2 0xB6C DUP2 PUSH2 0xB33 JUMP JUMPDEST SWAP1 POP SWAP2 SWAP1 POP JUMP INVALID LOG2 PUSH5 0x6970667358 0x22 SLT KECCAK256 0x2C SDIV JUMP KECCAK256 DUP5 MLOAD PUSH8 0x4221DBCB62AA785D TIMESTAMP 0xEE SMOD PUSH11 0x793C1836B1AD0150644FCC 0x4F 0xE5 PUSH5 0x736F6C6343 STOP ADDMOD BYTE STOP CALLER "
				},
				"gasEstimates": {
					"creation": {
						"codeDepositCost": "597000",
						"executionCost": "630",
						"totalCost": "597630"
					},
					"external": {
						"addLiquidity(address,address,uint256,uint256)": "infinite",
						"removeLiquidity(address,address)": "infinite"
					},
					"internal": {
						"safeApprove(contract IERC20,address,uint256)": "infinite",
						"safeTransferFrom(contract IERC20,address,address,uint256)": "infinite"
					}
				},
				"methodIdentifiers": {
					"addLiquidity(address,address,uint256,uint256)": "cf6c62ea",
					"removeLiquidity(address,address)": "9cf38f7c"
				}
			},
			"storageLayout": {
				"storage": [],
				"types": null
			},
			"userdoc": {
				"kind": "user",
				"methods": {},
				"version": 1
			}
		}
	}
}